{
  "contractName": "owned",
  "abi": [
    {
      "constant": true,
      "inputs": [],
      "name": "bankAddress",
      "outputs": [
        {
          "name": "",
          "type": "address"
        }
      ],
      "payable": false,
      "stateMutability": "view",
      "type": "function"
    },
    {
      "inputs": [],
      "payable": false,
      "stateMutability": "nonpayable",
      "type": "constructor"
    }
  ],
  "bytecode": "0x6060604052341561000f57600080fd5b336000806101000a81548173ffffffffffffffffffffffffffffffffffffffff021916908373ffffffffffffffffffffffffffffffffffffffff16021790555060e78061005d6000396000f300606060405260043610603f576000357c0100000000000000000000000000000000000000000000000000000000900463ffffffff1680637822ed49146044575b600080fd5b3415604e57600080fd5b60546096565b604051808273ffffffffffffffffffffffffffffffffffffffff1673ffffffffffffffffffffffffffffffffffffffff16815260200191505060405180910390f35b6000809054906101000a900473ffffffffffffffffffffffffffffffffffffffff16815600a165627a7a7230582072a3c78784fa09d0e781f4ee5bfad71c2b58040347f3eafa7d92434fa530af090029",
  "source": "pragma solidity ^0.4.19;\n\ncontract owned {\n    function owned() public { bankAddress = msg.sender; }\n    address public bankAddress;\n\n    modifier onlyOwner {\n        require(msg.sender == bankAddress);\n        _;\n    }\n}\n\ncontract roulette is owned {\n\n    struct GameRound {\n        // bank\n        bytes32 storedBankHash;\n        uint256 storedBankValue;\n\n        // user\n        uint256 storedUserValue;\n\n        // game\n        bool storedUserBet;\n        uint256 blockWhenValueSubmitted;\n        uint256 lockedFunds;\n    }\n\n    event BankHashSet(address userAddress);\n    event FundsChanged(address _address);\n    event EvaluationFinished(address userAddress);\n\n    mapping (address => GameRound) public gameRounds;\n    mapping (address => uint256) public lastRouletteNumbers;\n    mapping (address => uint256) public registeredFunds;\n\n    bool[37] numberIsRed = [false, true, false, true, false, true, false, true, false, true, false, false, true, false, true, false, true, false, true, true, false, true, false, true, false, true, false, true, false, false, true, false, true, false, true, false, true];\n\n    function resetContractFor(address _address) private {\n        gameRounds[_address] = GameRound(0x0, 0, 0, false, 0, 0);\n    }\n\n    function increaseFunds() external payable {\n        require(msg.value > 0);\n        registeredFunds[msg.sender] += msg.value;\n        FundsChanged(msg.sender);\n    }\n\n    function retrieveMoney() external {\n        require (registeredFunds[msg.sender] > 0);\n\n        uint256 funds = registeredFunds[msg.sender];\n        registeredFunds[msg.sender] = 0;\n        FundsChanged(msg.sender);\n\n        msg.sender.transfer(funds);\n    }\n\n    function placeBet(bool _bet, uint256 _value, uint256 _betAmount) external {\n        require(_value != 0);\n        require(registeredFunds[bankAddress] >= _betAmount);\n        require(registeredFunds[msg.sender] >= _betAmount);\n\n        gameRounds[msg.sender].storedUserValue = _value;\n        gameRounds[msg.sender].storedUserBet = _bet;\n        gameRounds[msg.sender].lockedFunds = _betAmount * 2;\n        registeredFunds[msg.sender] -= _betAmount;\n        registeredFunds[bankAddress] -= _betAmount;\n\n        FundsChanged(msg.sender);\n        FundsChanged(bankAddress);\n    }\n\n    function setBankHash(bytes32 _hash, address _address) external onlyOwner {\n        require(gameRounds[_address].storedBankHash == 0);\n\n        gameRounds[_address].storedBankHash = _hash;\n        BankHashSet(_address);\n    }\n\n    function sendBankValue(uint256 _value, address _address) external onlyOwner {\n        require(keccak256(_value) == gameRounds[_address].storedBankHash);\n        require(gameRounds[_address].storedUserValue != 0);\n        require(gameRounds[_address].storedBankValue == 0);\n\n        gameRounds[_address].storedBankValue = _value;\n        gameRounds[_address].blockWhenValueSubmitted = block.number;\n\n        evaluateBet(_address);\n    }\n\n    function sendUserValue(uint256 _value) external {\n        require(gameRounds[msg.sender].storedBankHash != 0);\n\n        gameRounds[msg.sender].storedUserValue = _value;\n    }\n\n    function checkBankValueTimeout() external onlyOwner {\n        require(block.number > (gameRounds[msg.sender].blockWhenValueSubmitted + 300));\n        require(gameRounds[msg.sender].storedBankHash != 0);\n        require(gameRounds[msg.sender].storedBankValue == 0);\n        require(gameRounds[msg.sender].storedUserValue != 0);\n\n        registeredFunds[msg.sender] += gameRounds[msg.sender].lockedFunds;\n        FundsChanged(msg.sender);\n        resetContractFor(msg.sender);\n    }\n\n    function evaluateBet(address _address) private {\n        uint256 random = gameRounds[_address].storedBankValue ^ gameRounds[_address].storedUserValue;\n        uint256 number = getRouletteNumber(random);\n        uint256 winningAmount = gameRounds[_address].lockedFunds;\n        address winner;\n\n        bool isRed = numberIsRed[number];\n        bool userBet = gameRounds[_address].storedUserBet;\n\n        if ((isRed && userBet) || (!isRed && !userBet && number != 0)) {\n            winner = _address;\n        } else {\n            winner = bankAddress;\n        }\n\n        registeredFunds[winner] += winningAmount;\n        lastRouletteNumbers[_address] = number;\n        resetContractFor(_address);\n\n        FundsChanged(winner);\n        EvaluationFinished(_address);\n    }\n\n    function debugShowHashForValue(uint256 _value) external pure returns (bytes32) {\n        return keccak256(_value);\n    }\n\n    function getRouletteNumber(uint256 _random) private pure returns (uint8) {\n        return uint8(_random % 37);\n    }\n}\n",
  "sourcePath": "/Users/markus/solidity/RouletteContract/contracts/roulette.sol",
  "compiler": {
    "name": "solc",
    "version": "0.4.19+commit.c4cbbb05.Emscripten.clang"
  },
  "schemaVersion": "1.0.1",
  "updatedAt": "2018-04-03T14:10:52.640Z"
}