{
  "contractName": "owned",
  "abi": [
    {
      "constant": true,
      "inputs": [],
      "name": "bankAddress",
      "outputs": [
        {
          "name": "",
          "type": "address"
        }
      ],
      "payable": false,
      "stateMutability": "view",
      "type": "function"
    },
    {
      "inputs": [],
      "payable": false,
      "stateMutability": "nonpayable",
      "type": "constructor"
    }
  ],
  "bytecode": "0x6060604052341561000f57600080fd5b336000806101000a81548173ffffffffffffffffffffffffffffffffffffffff021916908373ffffffffffffffffffffffffffffffffffffffff16021790555060e78061005d6000396000f300606060405260043610603f576000357c0100000000000000000000000000000000000000000000000000000000900463ffffffff1680637822ed49146044575b600080fd5b3415604e57600080fd5b60546096565b604051808273ffffffffffffffffffffffffffffffffffffffff1673ffffffffffffffffffffffffffffffffffffffff16815260200191505060405180910390f35b6000809054906101000a900473ffffffffffffffffffffffffffffffffffffffff16815600a165627a7a72305820564ab2bdeb01d62a5963a27ff9ae369d5298cbed810377e55a93469344335ce60029",
  "source": "pragma solidity ^0.4.19;\n\ncontract owned {\n    function owned() public { bankAddress = msg.sender; }\n    address public bankAddress;\n\n    modifier onlyOwner {\n        require(msg.sender == bankAddress);\n        _;\n    }\n}\n\ncontract roulette is owned {\n\n    struct GameRound {\n        // bank\n        bytes32 storedBankHash;\n        uint8 storedBankValue;\n\n        // user\n        bytes32 storedUserHash;\n        uint8 storedUserValue;\n\n        // game\n        bool storedUserBet;\n        uint256 blockWhenValueSubmitted;\n        uint256 lockedFunds;\n    }\n\n    event FundsChanged(address _address);\n    event BankValueWasSet(address userAddress);\n\n    mapping (address => GameRound) public gameRounds;\n    mapping (address => uint8) public lastRouletteNumbers;\n    mapping (address => uint256) public registeredFunds;\n\n    bool[37] numberIsRed = [false, true, false, true, false, true, false, true, false, true, false, false, true, false, true, false, true, false, true, true, false, true, false, true, false, true, false, true, false, false, true, false, true, false, true, false, true];\n\n    function resetContractFor(address _address) private {\n        gameRounds[_address] = GameRound(0x0, 0, 0x0, 0, false, 0, 0);\n    }\n\n    function increaseBankFunds() external payable onlyOwner {\n        require(msg.value > 0);\n        registeredFunds[bankAddress] += msg.value;\n        FundsChanged(bankAddress);\n    }\n\n    function retrieveMoney() external {\n        require (registeredFunds[msg.sender] > 0);\n\n        registeredFunds[msg.sender] = 0;\n        FundsChanged(msg.sender);\n\n        msg.sender.transfer(registeredFunds[msg.sender]);\n    }\n\n    function placeBet(bool _bet, bytes32 _hash) external payable {\n        require(gameRounds[msg.sender].storedUserHash == 0);\n        require(_hash != 0);\n        require(registeredFunds[bankAddress] >= msg.value);\n\n        gameRounds[msg.sender].storedUserHash = _hash;\n        gameRounds[msg.sender].storedUserBet = _bet;\n        gameRounds[msg.sender].lockedFunds = msg.value * 2;\n        registeredFunds[bankAddress] -= msg.value;\n        FundsChanged(bankAddress);\n    }\n\n    function setBankHash(bytes32 _hash, address _address) external onlyOwner {\n        require(gameRounds[_address].storedUserHash != 0);\n        require(gameRounds[_address].storedBankHash == 0);\n\n        gameRounds[_address].storedBankHash = _hash;\n    }\n\n    function sendBankValue(uint8 _value, address _address) external onlyOwner {\n        require(keccak256(_value) == gameRounds[_address].storedBankHash);\n        require(gameRounds[_address].storedUserValue != 0);\n        require(gameRounds[_address].storedBankValue == 0);\n\n        gameRounds[_address].storedBankValue = _value;\n        gameRounds[_address].blockWhenValueSubmitted = block.number;\n        BankValueWasSet(_address);\n    }\n\n    function sendUserValue(uint8 _value) external {\n        require(keccak256(_value) == gameRounds[msg.sender].storedUserHash);\n        require(gameRounds[msg.sender].storedUserValue == 0);\n\n        gameRounds[msg.sender].storedUserValue = _value;\n    }\n\n    function checkUserValueTimeout(address _address) external onlyOwner {\n        require(block.number > (gameRounds[_address].blockWhenValueSubmitted + 1000));\n        require(gameRounds[_address].storedUserValue == 0);\n\n        registeredFunds[bankAddress] += gameRounds[_address].lockedFunds;\n        FundsChanged(bankAddress);\n        resetContractFor(_address);\n    }\n\n    function evaluateBet() external {\n        require(gameRounds[msg.sender].storedUserValue != 0);\n        require(gameRounds[msg.sender].storedBankValue != 0);\n\n        uint8 random = gameRounds[msg.sender].storedBankValue\n                ^ gameRounds[msg.sender].storedUserValue;\n        uint8 number = getRouletteNumber(random);\n        uint256 winningAmount = gameRounds[msg.sender].lockedFunds;\n        address winner;\n\n        bool isRed = numberIsRed[number];\n        bool userBet = gameRounds[msg.sender].storedUserBet;\n\n        if ((isRed && userBet) || (!isRed && !userBet && number != 0)) {\n            winner = msg.sender;\n        } else {\n            winner = bankAddress;\n        }\n\n        FundsChanged(winner);\n        registeredFunds[winner] += winningAmount;\n        lastRouletteNumbers[msg.sender] = number;\n        resetContractFor(msg.sender);\n    }\n\n    function debugShowHashForValue(uint8 _value) external pure returns (bytes32) {\n        return keccak256(_value);\n    }\n\n    function getRouletteNumber(uint8 _random) public pure returns (uint8) {\n        // TODO public -> private\n        // uint256 max = 2**256 - 1;\n        uint8 numberDistance = 7; // uint256: max / 37;\n        return _random / numberDistance;\n    }\n}\n",
  "sourcePath": "/Users/markus/solidity/RouletteContract/contracts/roulette.sol",
  "compiler": {
    "name": "solc",
    "version": "0.4.19+commit.c4cbbb05.Emscripten.clang"
  },
  "schemaVersion": "1.0.1",
  "updatedAt": "2018-03-12T12:39:04.911Z"
}