{
  "contractName": "roulette",
  "abi": [
    {
      "constant": false,
      "inputs": [],
      "name": "increaseBankFunds",
      "outputs": [],
      "payable": true,
      "stateMutability": "payable",
      "type": "function"
    },
    {
      "constant": false,
      "inputs": [
        {
          "name": "_value",
          "type": "uint8"
        }
      ],
      "name": "sendUserValue",
      "outputs": [],
      "payable": false,
      "stateMutability": "nonpayable",
      "type": "function"
    },
    {
      "constant": false,
      "inputs": [],
      "name": "evaluateBet",
      "outputs": [
        {
          "name": "",
          "type": "uint8"
        }
      ],
      "payable": false,
      "stateMutability": "nonpayable",
      "type": "function"
    },
    {
      "constant": true,
      "inputs": [
        {
          "name": "_value",
          "type": "uint8"
        }
      ],
      "name": "debugShowHashForValue",
      "outputs": [
        {
          "name": "",
          "type": "bytes32"
        }
      ],
      "payable": false,
      "stateMutability": "pure",
      "type": "function"
    },
    {
      "constant": false,
      "inputs": [
        {
          "name": "_address",
          "type": "address"
        }
      ],
      "name": "retrieveMoney",
      "outputs": [],
      "payable": false,
      "stateMutability": "nonpayable",
      "type": "function"
    },
    {
      "constant": true,
      "inputs": [],
      "name": "showBankAddress",
      "outputs": [
        {
          "name": "",
          "type": "address"
        }
      ],
      "payable": false,
      "stateMutability": "view",
      "type": "function"
    },
    {
      "constant": false,
      "inputs": [
        {
          "name": "_bet",
          "type": "bool"
        },
        {
          "name": "_hash",
          "type": "bytes32"
        }
      ],
      "name": "placeBet",
      "outputs": [],
      "payable": true,
      "stateMutability": "payable",
      "type": "function"
    },
    {
      "constant": true,
      "inputs": [
        {
          "name": "_address",
          "type": "address"
        }
      ],
      "name": "showBalance",
      "outputs": [
        {
          "name": "",
          "type": "uint256"
        }
      ],
      "payable": false,
      "stateMutability": "view",
      "type": "function"
    },
    {
      "constant": false,
      "inputs": [
        {
          "name": "_hash",
          "type": "bytes32"
        }
      ],
      "name": "setBankHash",
      "outputs": [],
      "payable": false,
      "stateMutability": "nonpayable",
      "type": "function"
    },
    {
      "constant": false,
      "inputs": [],
      "name": "resetContract",
      "outputs": [],
      "payable": false,
      "stateMutability": "nonpayable",
      "type": "function"
    },
    {
      "constant": true,
      "inputs": [
        {
          "name": "",
          "type": "address"
        }
      ],
      "name": "registeredFunds",
      "outputs": [
        {
          "name": "",
          "type": "uint256"
        }
      ],
      "payable": false,
      "stateMutability": "view",
      "type": "function"
    },
    {
      "constant": true,
      "inputs": [
        {
          "name": "",
          "type": "address"
        }
      ],
      "name": "lockedFunds",
      "outputs": [
        {
          "name": "",
          "type": "uint256"
        }
      ],
      "payable": false,
      "stateMutability": "view",
      "type": "function"
    },
    {
      "constant": true,
      "inputs": [
        {
          "name": "_random",
          "type": "uint8"
        }
      ],
      "name": "getRouletteNumber",
      "outputs": [
        {
          "name": "",
          "type": "uint8"
        }
      ],
      "payable": false,
      "stateMutability": "pure",
      "type": "function"
    },
    {
      "constant": false,
      "inputs": [],
      "name": "checkUserValueTimeout",
      "outputs": [],
      "payable": false,
      "stateMutability": "nonpayable",
      "type": "function"
    },
    {
      "constant": false,
      "inputs": [
        {
          "name": "_value",
          "type": "uint8"
        }
      ],
      "name": "sendBankValue",
      "outputs": [],
      "payable": false,
      "stateMutability": "nonpayable",
      "type": "function"
    }
  ],
  "bytecode": "0x6060604052336000806101000a81548173ffffffffffffffffffffffffffffffffffffffff021916908373ffffffffffffffffffffffffffffffffffffffff160217905550610e27806100536000396000f3006060604052600436106100da576000357c0100000000000000000000000000000000000000000000000000000000900463ffffffff1680625834e2146100df578063084ff5de146100e95780630a7a08071461010f578063435c10c41461013e5780634546310c146101805780636f4e15db146101b9578063981f08b51461020e5780639c080f5d146102355780639d7bd0ef14610282578063b181a8fc146102a9578063b3a5cec6146102be578063b86247d71461030b578063bca7320114610358578063db60aab314610398578063ea71777c146103ad575b600080fd5b6100e76103d3565b005b34156100f457600080fd5b61010d600480803560ff1690602001909190505061048c565b005b341561011a57600080fd5b6101226104ff565b604051808260ff1660ff16815260200191505060405180910390f35b341561014957600080fd5b610162600480803560ff16906020019091905050610745565b60405180826000191660001916815260200191505060405180910390f35b341561018b57600080fd5b6101b7600480803573ffffffffffffffffffffffffffffffffffffffff1690602001909190505061078c565b005b34156101c457600080fd5b6101cc61080e565b604051808273ffffffffffffffffffffffffffffffffffffffff1673ffffffffffffffffffffffffffffffffffffffff16815260200191505060405180910390f35b6102336004808035151590602001909190803560001916906020019091905050610837565b005b341561024057600080fd5b61026c600480803573ffffffffffffffffffffffffffffffffffffffff1690602001909190505061092c565b6040518082815260200191505060405180910390f35b341561028d57600080fd5b6102a7600480803560001916906020019091905050610975565b005b34156102b457600080fd5b6102bc6109fe565b005b34156102c957600080fd5b6102f5600480803573ffffffffffffffffffffffffffffffffffffffff16906020019091905050610b16565b6040518082815260200191505060405180910390f35b341561031657600080fd5b610342600480803573ffffffffffffffffffffffffffffffffffffffff16906020019091905050610b2e565b6040518082815260200191505060405180910390f35b341561036357600080fd5b61037c600480803560ff16906020019091905050610b46565b604051808260ff1660ff16815260200191505060405180910390f35b34156103a357600080fd5b6103ab610b67565b005b34156103b857600080fd5b6103d1600480803560ff16906020019091905050610d2d565b005b6000809054906101000a900473ffffffffffffffffffffffffffffffffffffffff1673ffffffffffffffffffffffffffffffffffffffff163373ffffffffffffffffffffffffffffffffffffffff1614151561042e57600080fd5b60003411151561043d57600080fd5b34600660003373ffffffffffffffffffffffffffffffffffffffff1673ffffffffffffffffffffffffffffffffffffffff16815260200190815260200160002060008282540192505081905550565b6003546000191681604051808260ff1660ff167f01000000000000000000000000000000000000000000000000000000000000000281526001019150506040518091039020600019161415156104e157600080fd5b80600460006101000a81548160ff021916908360ff16021790555050565b600080600080600080600460009054906101000a900460ff1660ff161415801561053c57506000600260009054906101000a900460ff1660ff1614155b151561054757600080fd5b600460009054906101000a900460ff16600260009054906101000a900460ff1618935061057384610b46565b9250600260076000600460019054906101000a900473ffffffffffffffffffffffffffffffffffffffff1673ffffffffffffffffffffffffffffffffffffffff1673ffffffffffffffffffffffffffffffffffffffff16815260200190815260200160002054029150600060028460ff168115156105ed57fe5b0660ff161415801561060b5750600460159054906101000a900460ff165b80610633575060008360ff16141580156106325750600460159054906101000a900460ff16155b5b1561066257600460019054906101000a900473ffffffffffffffffffffffffffffffffffffffff169050610687565b6000809054906101000a900473ffffffffffffffffffffffffffffffffffffffff1690505b600060076000600460019054906101000a900473ffffffffffffffffffffffffffffffffffffffff1673ffffffffffffffffffffffffffffffffffffffff1673ffffffffffffffffffffffffffffffffffffffff1681526020019081526020016000208190555081600660008373ffffffffffffffffffffffffffffffffffffffff1673ffffffffffffffffffffffffffffffffffffffff168152602001908152602001600020600082825401925050819055508294505050505090565b600081604051808260ff1660ff167f010000000000000000000000000000000000000000000000000000000000000002815260010191505060405180910390209050919050565b8073ffffffffffffffffffffffffffffffffffffffff166108fc600660008473ffffffffffffffffffffffffffffffffffffffff1673ffffffffffffffffffffffffffffffffffffffff168152602001908152602001600020549081150290604051600060405180830381858888f19350505050151561080b57600080fd5b50565b60008060009054906101000a900473ffffffffffffffffffffffffffffffffffffffff16905090565b6000600460019054906101000a900473ffffffffffffffffffffffffffffffffffffffff1673ffffffffffffffffffffffffffffffffffffffff1614151561087e57600080fd5b33600460016101000a81548173ffffffffffffffffffffffffffffffffffffffff021916908373ffffffffffffffffffffffffffffffffffffffff160217905550806003816000191690555081600460156101000a81548160ff02191690831515021790555034600760003373ffffffffffffffffffffffffffffffffffffffff1673ffffffffffffffffffffffffffffffffffffffff168152602001908152602001600020819055505050565b6000600660008373ffffffffffffffffffffffffffffffffffffffff1673ffffffffffffffffffffffffffffffffffffffff168152602001908152602001600020549050919050565b6000809054906101000a900473ffffffffffffffffffffffffffffffffffffffff1673ffffffffffffffffffffffffffffffffffffffff163373ffffffffffffffffffffffffffffffffffffffff161415156109d057600080fd5b600060010260035460001916141515156109e957600080fd5b80600181600019169055504360058190555050565b6000809054906101000a900473ffffffffffffffffffffffffffffffffffffffff1673ffffffffffffffffffffffffffffffffffffffff163373ffffffffffffffffffffffffffffffffffffffff16141515610a5957600080fd5b6000600102600181600019169055506000600260006101000a81548160ff021916908360ff1602179055506000600102600381600019169055506000600460006101000a81548160ff021916908360ff1602179055506000600460016101000a81548173ffffffffffffffffffffffffffffffffffffffff021916908373ffffffffffffffffffffffffffffffffffffffff1602179055506000600460156101000a81548160ff0219169083151502179055506000600581905550565b60066020528060005260406000206000915090505481565b60076020528060005260406000206000915090505481565b600080600790508060ff168360ff16811515610b5e57fe5b04915050919050565b6000809054906101000a900473ffffffffffffffffffffffffffffffffffffffff1673ffffffffffffffffffffffffffffffffffffffff163373ffffffffffffffffffffffffffffffffffffffff16141515610bc257600080fd5b6103e86005540143118015610bea57506000600460009054906101000a900460ff1660ff1614155b1515610bf557600080fd5b60066000600460019054906101000a900473ffffffffffffffffffffffffffffffffffffffff1673ffffffffffffffffffffffffffffffffffffffff1673ffffffffffffffffffffffffffffffffffffffff16815260200190815260200160002054600660008060009054906101000a900473ffffffffffffffffffffffffffffffffffffffff1673ffffffffffffffffffffffffffffffffffffffff1673ffffffffffffffffffffffffffffffffffffffff16815260200190815260200160002060008282540192505081905550600060066000600460019054906101000a900473ffffffffffffffffffffffffffffffffffffffff1673ffffffffffffffffffffffffffffffffffffffff1673ffffffffffffffffffffffffffffffffffffffff16815260200190815260200160002081905550565b6000809054906101000a900473ffffffffffffffffffffffffffffffffffffffff1673ffffffffffffffffffffffffffffffffffffffff163373ffffffffffffffffffffffffffffffffffffffff16141515610d8857600080fd5b6001546000191681604051808260ff1660ff167f0100000000000000000000000000000000000000000000000000000000000000028152600101915050604051809103902060001916141515610ddd57600080fd5b80600260006101000a81548160ff021916908360ff160217905550505600a165627a7a723058204e6efde5ab82e1b79f6695e65b529f0d1faff71d8c49b3dc0d48d65bec2752750029",
  "source": "pragma solidity ^0.4.18;\n\ncontract owned {\n    function owned() public { bankAddress = msg.sender; }\n    address bankAddress;\n\n    modifier onlyOwner {\n        require(msg.sender == bankAddress);\n        _;\n    }\n}\n\n\ncontract roulette is owned {\n    // bank\n    bytes32 storedBankHash;\n    uint8 storedBankValue;\n\n    // user\n    bytes32 storedUserHash;\n    uint8 storedUserValue;\n    address userAddress;\n\n    // game\n    bool storedUserBet;\n    uint256 blockWhenValuesSubmitted;\n    mapping (address => uint256) public registeredFunds;\n    mapping (address => uint256) public lockedFunds;\n\n    function resetContract() public onlyOwner {\n        storedBankHash = 0x0;\n        storedBankValue = 0;\n        storedUserHash = 0x0;\n        storedUserValue = 0;\n        userAddress = 0x0;\n        storedUserBet = false;\n        blockWhenValuesSubmitted = 0;\n    }\n\n    function increaseBankFunds() public payable onlyOwner {\n        require(msg.value > 0);\n        registeredFunds[msg.sender] += msg.value;\n    }\n\n    function retrieveMoney(address _address) public {\n        _address.transfer(registeredFunds[_address]);\n    }\n\n    function showBankAddress() public view returns (address) {\n        return bankAddress;\n    }\n\n    function showBalance(address _address) public view returns (uint256) {\n        return registeredFunds[_address];\n    }\n\n    function placeBet(bool _bet, bytes32 _hash) public payable {\n        require(userAddress == 0);\n\n        userAddress = msg.sender;\n        storedUserHash = _hash;\n        storedUserBet = _bet;\n        lockedFunds[msg.sender] = msg.value;\n    }\n\n    function setBankHash(bytes32 _hash) public onlyOwner {\n        require(storedUserHash != 0);\n        storedBankHash = _hash;\n        blockWhenValuesSubmitted = block.number;\n    }\n\n    function sendBankValue(uint8 _value) public onlyOwner {\n        require(keccak256(_value) == storedBankHash);\n        storedBankValue = _value;\n    }\n\n    function sendUserValue(uint8 _value) public {\n        require(keccak256(_value) == storedUserHash);\n        storedUserValue = _value;\n    }\n\n    function checkUserValueTimeout() public onlyOwner {\n        require(block.number > (blockWhenValuesSubmitted + 1000) && storedUserValue != 0);\n        registeredFunds[bankAddress] += registeredFunds[userAddress];\n        registeredFunds[userAddress] = 0;\n    }\n\n    function evaluateBet() public returns (uint8) {\n        require(storedUserValue != 0 && storedBankValue != 0);\n        uint8 random = storedBankValue ^ storedUserValue;\n        uint8 number = getRouletteNumber(random);\n        uint256 winningAmount = lockedFunds[userAddress] * 2;\n        address winner;\n\n        if ((number % 2 != 0 && storedUserBet) || (number != 0 && !storedUserBet)) {\n            winner = userAddress;\n        } else {\n            winner = bankAddress;\n        }\n\n        lockedFunds[userAddress] = 0;\n        registeredFunds[winner] += winningAmount;\n        return number;\n    }\n\n    function debugShowHashForValue(uint8 _value) public pure returns (bytes32) {\n        return keccak256(_value);\n    }\n\n    function getRouletteNumber(uint8 _random) public pure returns (uint8) {\n        // uint256 max = 2**256 - 1;\n        uint8 numberDistance = 7; // uint256: max / 37;\n        return _random / numberDistance;\n    }\n}\n",
  "sourcePath": "/Users/markus/solidity/roulette/contracts/roulette.sol",
  "compiler": {
    "name": "solc",
    "version": "0.4.19+commit.c4cbbb05.Emscripten.clang"
  },
  "schemaVersion": "1.0.1",
  "updatedAt": "2018-03-01T17:35:12.328Z"
}