{
  "contractName": "roulette",
  "abi": [
    {
      "constant": false,
      "inputs": [],
      "name": "increaseBankFunds",
      "outputs": [],
      "payable": true,
      "stateMutability": "payable",
      "type": "function"
    },
    {
      "constant": false,
      "inputs": [
        {
          "name": "_value",
          "type": "uint8"
        }
      ],
      "name": "sendUserValue",
      "outputs": [],
      "payable": false,
      "stateMutability": "nonpayable",
      "type": "function"
    },
    {
      "constant": false,
      "inputs": [],
      "name": "evaluateBet",
      "outputs": [],
      "payable": false,
      "stateMutability": "nonpayable",
      "type": "function"
    },
    {
      "constant": false,
      "inputs": [
        {
          "name": "_bet",
          "type": "bool"
        },
        {
          "name": "_userAddress",
          "type": "address"
        },
        {
          "name": "_hash",
          "type": "bytes32"
        }
      ],
      "name": "placeBet",
      "outputs": [],
      "payable": true,
      "stateMutability": "payable",
      "type": "function"
    },
    {
      "constant": true,
      "inputs": [
        {
          "name": "_value",
          "type": "uint8"
        }
      ],
      "name": "debugShowHashForValue",
      "outputs": [
        {
          "name": "",
          "type": "bytes32"
        }
      ],
      "payable": false,
      "stateMutability": "pure",
      "type": "function"
    },
    {
      "constant": false,
      "inputs": [
        {
          "name": "_address",
          "type": "address"
        }
      ],
      "name": "retrieveMoney",
      "outputs": [],
      "payable": false,
      "stateMutability": "nonpayable",
      "type": "function"
    },
    {
      "constant": true,
      "inputs": [],
      "name": "showBankAddress",
      "outputs": [
        {
          "name": "",
          "type": "address"
        }
      ],
      "payable": false,
      "stateMutability": "view",
      "type": "function"
    },
    {
      "constant": true,
      "inputs": [
        {
          "name": "_address",
          "type": "address"
        }
      ],
      "name": "showBalance",
      "outputs": [
        {
          "name": "",
          "type": "uint256"
        }
      ],
      "payable": false,
      "stateMutability": "view",
      "type": "function"
    },
    {
      "constant": false,
      "inputs": [
        {
          "name": "_hash",
          "type": "bytes32"
        }
      ],
      "name": "setBankHash",
      "outputs": [],
      "payable": false,
      "stateMutability": "nonpayable",
      "type": "function"
    },
    {
      "constant": false,
      "inputs": [],
      "name": "resetContract",
      "outputs": [],
      "payable": false,
      "stateMutability": "nonpayable",
      "type": "function"
    },
    {
      "constant": true,
      "inputs": [
        {
          "name": "",
          "type": "address"
        }
      ],
      "name": "registeredFunds",
      "outputs": [
        {
          "name": "",
          "type": "uint256"
        }
      ],
      "payable": false,
      "stateMutability": "view",
      "type": "function"
    },
    {
      "constant": true,
      "inputs": [
        {
          "name": "_random",
          "type": "uint8"
        }
      ],
      "name": "getRouletteNumber",
      "outputs": [
        {
          "name": "",
          "type": "uint8"
        }
      ],
      "payable": false,
      "stateMutability": "pure",
      "type": "function"
    },
    {
      "constant": false,
      "inputs": [],
      "name": "checkUserValueTimeout",
      "outputs": [],
      "payable": false,
      "stateMutability": "nonpayable",
      "type": "function"
    },
    {
      "constant": false,
      "inputs": [
        {
          "name": "_value",
          "type": "uint8"
        }
      ],
      "name": "sendBankValue",
      "outputs": [],
      "payable": false,
      "stateMutability": "nonpayable",
      "type": "function"
    }
  ],
  "bytecode": "0x6060604052336000806101000a81548173ffffffffffffffffffffffffffffffffffffffff021916908373ffffffffffffffffffffffffffffffffffffffff160217905550610d43806100536000396000f3006060604052600436106100cf576000357c0100000000000000000000000000000000000000000000000000000000900463ffffffff1680625834e2146100d4578063084ff5de146100de5780630a7a0807146101045780633328e93c14610119578063435c10c41461015f5780634546310c146101a15780636f4e15db146101da5780639c080f5d1461022f5780639d7bd0ef1461027c578063b181a8fc146102a3578063b3a5cec6146102b8578063bca7320114610305578063db60aab314610345578063ea71777c1461035a575b600080fd5b6100dc610380565b005b34156100e957600080fd5b610102600480803560ff16906020019091905050610430565b005b341561010f57600080fd5b6101176104a3565b005b61015d6004808035151590602001909190803573ffffffffffffffffffffffffffffffffffffffff169060200190919080356000191690602001909190505061067d565b005b341561016a57600080fd5b610183600480803560ff16906020019091905050610773565b60405180826000191660001916815260200191505060405180910390f35b34156101ac57600080fd5b6101d8600480803573ffffffffffffffffffffffffffffffffffffffff169060200190919050506107ba565b005b34156101e557600080fd5b6101ed61083c565b604051808273ffffffffffffffffffffffffffffffffffffffff1673ffffffffffffffffffffffffffffffffffffffff16815260200191505060405180910390f35b341561023a57600080fd5b610266600480803573ffffffffffffffffffffffffffffffffffffffff16906020019091905050610865565b6040518082815260200191505060405180910390f35b341561028757600080fd5b6102a16004808035600019169060200190919050506108ae565b005b34156102ae57600080fd5b6102b6610932565b005b34156102c357600080fd5b6102ef600480803573ffffffffffffffffffffffffffffffffffffffff16906020019091905050610a4a565b6040518082815260200191505060405180910390f35b341561031057600080fd5b610329600480803560ff16906020019091905050610a62565b604051808260ff1660ff16815260200191505060405180910390f35b341561035057600080fd5b610358610a83565b005b341561036557600080fd5b61037e600480803560ff16906020019091905050610c49565b005b6000809054906101000a900473ffffffffffffffffffffffffffffffffffffffff1673ffffffffffffffffffffffffffffffffffffffff163373ffffffffffffffffffffffffffffffffffffffff161415156103db57600080fd5b6000341115156103ea57600080fd5b34600660003373ffffffffffffffffffffffffffffffffffffffff1673ffffffffffffffffffffffffffffffffffffffff16815260200190815260200160002081905550565b6003546000191681604051808260ff1660ff167f010000000000000000000000000000000000000000000000000000000000000002815260010191505060405180910390206000191614151561048557600080fd5b80600460006101000a81548160ff021916908360ff16021790555050565b6000806000806000600460009054906101000a900460ff1660ff16141580156104df57506000600260009054906101000a900460ff1660ff1614155b15156104ea57600080fd5b600460009054906101000a900460ff16600260009054906101000a900460ff1618935061051684610a62565b9250600260066000600460019054906101000a900473ffffffffffffffffffffffffffffffffffffffff1673ffffffffffffffffffffffffffffffffffffffff1673ffffffffffffffffffffffffffffffffffffffff16815260200190815260200160002054029150600060028460ff1681151561059057fe5b0660ff16141580156105ae5750600460159054906101000a900460ff165b806105d6575060008360ff16141580156105d55750600460159054906101000a900460ff16155b5b1561060557600460019054906101000a900473ffffffffffffffffffffffffffffffffffffffff16905061062a565b6000809054906101000a900473ffffffffffffffffffffffffffffffffffffffff1690505b81600660008373ffffffffffffffffffffffffffffffffffffffff1673ffffffffffffffffffffffffffffffffffffffff1681526020019081526020016000206000828254019250508190555050505050565b6000600460019054906101000a900473ffffffffffffffffffffffffffffffffffffffff1673ffffffffffffffffffffffffffffffffffffffff161415156106c457600080fd5b81600460016101000a81548173ffffffffffffffffffffffffffffffffffffffff021916908373ffffffffffffffffffffffffffffffffffffffff160217905550806003816000191690555082600460156101000a81548160ff02191690831515021790555034600660003373ffffffffffffffffffffffffffffffffffffffff1673ffffffffffffffffffffffffffffffffffffffff16815260200190815260200160002081905550505050565b600081604051808260ff1660ff167f010000000000000000000000000000000000000000000000000000000000000002815260010191505060405180910390209050919050565b8073ffffffffffffffffffffffffffffffffffffffff166108fc600660008473ffffffffffffffffffffffffffffffffffffffff1673ffffffffffffffffffffffffffffffffffffffff168152602001908152602001600020549081150290604051600060405180830381858888f19350505050151561083957600080fd5b50565b60008060009054906101000a900473ffffffffffffffffffffffffffffffffffffffff16905090565b6000600660008373ffffffffffffffffffffffffffffffffffffffff1673ffffffffffffffffffffffffffffffffffffffff168152602001908152602001600020549050919050565b6000809054906101000a900473ffffffffffffffffffffffffffffffffffffffff1673ffffffffffffffffffffffffffffffffffffffff163373ffffffffffffffffffffffffffffffffffffffff1614151561090957600080fd5b806001816000191690555060006001026003546000191614151561092f57436005819055505b50565b6000809054906101000a900473ffffffffffffffffffffffffffffffffffffffff1673ffffffffffffffffffffffffffffffffffffffff163373ffffffffffffffffffffffffffffffffffffffff1614151561098d57600080fd5b6000600102600181600019169055506000600260006101000a81548160ff021916908360ff1602179055506000600102600381600019169055506000600460006101000a81548160ff021916908360ff1602179055506000600460016101000a81548173ffffffffffffffffffffffffffffffffffffffff021916908373ffffffffffffffffffffffffffffffffffffffff1602179055506000600460156101000a81548160ff0219169083151502179055506000600581905550565b60066020528060005260406000206000915090505481565b600080600790508060ff168360ff16811515610a7a57fe5b04915050919050565b6000809054906101000a900473ffffffffffffffffffffffffffffffffffffffff1673ffffffffffffffffffffffffffffffffffffffff163373ffffffffffffffffffffffffffffffffffffffff16141515610ade57600080fd5b6103e86005540143118015610b0657506000600460009054906101000a900460ff1660ff1614155b1515610b1157600080fd5b60066000600460019054906101000a900473ffffffffffffffffffffffffffffffffffffffff1673ffffffffffffffffffffffffffffffffffffffff1673ffffffffffffffffffffffffffffffffffffffff16815260200190815260200160002054600660008060009054906101000a900473ffffffffffffffffffffffffffffffffffffffff1673ffffffffffffffffffffffffffffffffffffffff1673ffffffffffffffffffffffffffffffffffffffff16815260200190815260200160002060008282540192505081905550600060066000600460019054906101000a900473ffffffffffffffffffffffffffffffffffffffff1673ffffffffffffffffffffffffffffffffffffffff1673ffffffffffffffffffffffffffffffffffffffff16815260200190815260200160002081905550565b6000809054906101000a900473ffffffffffffffffffffffffffffffffffffffff1673ffffffffffffffffffffffffffffffffffffffff163373ffffffffffffffffffffffffffffffffffffffff16141515610ca457600080fd5b6001546000191681604051808260ff1660ff167f0100000000000000000000000000000000000000000000000000000000000000028152600101915050604051809103902060001916141515610cf957600080fd5b80600260006101000a81548160ff021916908360ff160217905550505600a165627a7a72305820516f3d170db74eec0d305fc7d7364a9cd8a0ccc032996da3957719ceb1529a640029",
  "source": "pragma solidity ^0.4.18;\n\ncontract owned {\n    function owned() public { bankAddress = msg.sender; }\n    address bankAddress;\n\n    modifier onlyOwner {\n        require(msg.sender == bankAddress);\n        _;\n    }\n}\n\n\ncontract roulette is owned {\n    // bank\n    bytes32 storedBankHash;\n    uint8 storedBankValue;\n\n    // user\n    bytes32 storedUserHash;\n    uint8 storedUserValue;\n    address userAddress;\n\n    // game\n    bool storedUserBet;\n    uint256 blockWhenValuesSubmitted;\n    mapping (address => uint256) public registeredFunds;\n\n    function resetContract() public onlyOwner {\n        storedBankHash = 0x0;\n        storedBankValue = 0;\n        storedUserHash = 0x0;\n        storedUserValue = 0;\n        userAddress = 0x0;\n        storedUserBet = false;\n        blockWhenValuesSubmitted = 0;\n    }\n\n    function increaseBankFunds() public payable onlyOwner {\n        require(msg.value > 0);\n        registeredFunds[msg.sender] = msg.value;\n    }\n\n    function retrieveMoney(address _address) public {\n        _address.transfer(registeredFunds[_address]);\n    }\n\n    function showBankAddress() public view returns (address) {\n        return bankAddress;\n    }\n\n    function showBalance(address _address) public view returns (uint256) {\n        return registeredFunds[_address];\n    }\n\n    function placeBet(bool _bet, address _userAddress, bytes32 _hash) public payable {\n        require(userAddress == 0);\n\n        userAddress = _userAddress;\n        storedUserHash = _hash;\n        storedUserBet = _bet;\n        registeredFunds[msg.sender] = msg.value;\n    }\n\n    function setBankHash(bytes32 _hash) public onlyOwner {\n        storedBankHash = _hash;\n        if (storedUserHash != 0) { blockWhenValuesSubmitted = block.number; }\n    }\n\n    function sendBankValue(uint8 _value) public onlyOwner {\n        require(keccak256(_value) == storedBankHash);\n        storedBankValue = _value;\n    }\n\n    function sendUserValue(uint8 _value) public {\n       require(keccak256(_value) == storedUserHash);\n        storedUserValue = _value;\n    }\n\n    function checkUserValueTimeout() public onlyOwner {\n        require(block.number > (blockWhenValuesSubmitted + 1000) && storedUserValue != 0);\n        registeredFunds[bankAddress] += registeredFunds[userAddress];\n        registeredFunds[userAddress] = 0;\n    }\n\n    function evaluateBet() public {\n        require(storedUserValue != 0 && storedBankValue != 0);\n        uint8 random = storedBankValue ^ storedUserValue;\n        uint8 number = getRouletteNumber(random);\n        uint256 winningAmount = registeredFunds[userAddress] * 2;\n        address winner;\n\n        if ((number % 2 != 0 && storedUserBet) || (number != 0 && !storedUserBet)) {\n            winner = userAddress;\n        } else {\n            winner = bankAddress;\n        }\n\n        registeredFunds[winner] += winningAmount;\n    }\n\n    function debugShowHashForValue(uint8 _value) public pure returns (bytes32) {\n        return keccak256(_value);\n    }\n\n    function getRouletteNumber(uint8 _random) public pure returns (uint8) {\n        // uint256 max = 2**256 - 1;\n        uint8 numberDistance = 7; // uint256: max / 37;\n        return _random / numberDistance;\n    }\n}\n",
  "sourcePath": "/Users/markus/solidity/roulette/contracts/roulette.sol",
  "compiler": {
    "name": "solc",
    "version": "0.4.19+commit.c4cbbb05.Emscripten.clang"
  },
  "schemaVersion": "1.0.1",
  "updatedAt": "2018-02-25T22:36:06.611Z"
}