{
  "contractName": "roulette",
  "abi": [
    {
      "constant": false,
      "inputs": [],
      "name": "increaseBankFunds",
      "outputs": [],
      "payable": true,
      "stateMutability": "payable",
      "type": "function"
    },
    {
      "constant": false,
      "inputs": [
        {
          "name": "_value",
          "type": "uint8"
        }
      ],
      "name": "sendUserValue",
      "outputs": [],
      "payable": false,
      "stateMutability": "nonpayable",
      "type": "function"
    },
    {
      "constant": false,
      "inputs": [],
      "name": "evaluateBet",
      "outputs": [
        {
          "name": "",
          "type": "uint8"
        }
      ],
      "payable": false,
      "stateMutability": "nonpayable",
      "type": "function"
    },
    {
      "constant": false,
      "inputs": [
        {
          "name": "_hash",
          "type": "bytes32"
        },
        {
          "name": "_address",
          "type": "address"
        }
      ],
      "name": "setBankHash",
      "outputs": [],
      "payable": false,
      "stateMutability": "nonpayable",
      "type": "function"
    },
    {
      "constant": true,
      "inputs": [
        {
          "name": "_value",
          "type": "uint8"
        }
      ],
      "name": "debugShowHashForValue",
      "outputs": [
        {
          "name": "",
          "type": "bytes32"
        }
      ],
      "payable": false,
      "stateMutability": "pure",
      "type": "function"
    },
    {
      "constant": true,
      "inputs": [],
      "name": "showBankAddress",
      "outputs": [
        {
          "name": "",
          "type": "address"
        }
      ],
      "payable": false,
      "stateMutability": "view",
      "type": "function"
    },
    {
      "constant": false,
      "inputs": [
        {
          "name": "_bet",
          "type": "bool"
        },
        {
          "name": "_hash",
          "type": "bytes32"
        }
      ],
      "name": "placeBet",
      "outputs": [],
      "payable": true,
      "stateMutability": "payable",
      "type": "function"
    },
    {
      "constant": true,
      "inputs": [
        {
          "name": "_address",
          "type": "address"
        }
      ],
      "name": "showBalance",
      "outputs": [
        {
          "name": "",
          "type": "uint256"
        }
      ],
      "payable": false,
      "stateMutability": "view",
      "type": "function"
    },
    {
      "constant": false,
      "inputs": [
        {
          "name": "_value",
          "type": "uint8"
        },
        {
          "name": "_address",
          "type": "address"
        }
      ],
      "name": "sendBankValue",
      "outputs": [],
      "payable": false,
      "stateMutability": "nonpayable",
      "type": "function"
    },
    {
      "constant": true,
      "inputs": [
        {
          "name": "",
          "type": "address"
        }
      ],
      "name": "registeredFunds",
      "outputs": [
        {
          "name": "",
          "type": "uint256"
        }
      ],
      "payable": false,
      "stateMutability": "view",
      "type": "function"
    },
    {
      "constant": true,
      "inputs": [
        {
          "name": "_random",
          "type": "uint8"
        }
      ],
      "name": "getRouletteNumber",
      "outputs": [
        {
          "name": "",
          "type": "uint8"
        }
      ],
      "payable": false,
      "stateMutability": "pure",
      "type": "function"
    },
    {
      "constant": false,
      "inputs": [],
      "name": "retrieveMoney",
      "outputs": [],
      "payable": false,
      "stateMutability": "nonpayable",
      "type": "function"
    },
    {
      "constant": false,
      "inputs": [
        {
          "name": "_address",
          "type": "address"
        }
      ],
      "name": "checkUserValueTimeout",
      "outputs": [],
      "payable": false,
      "stateMutability": "nonpayable",
      "type": "function"
    }
  ],
  "bytecode": "0x60606040526104a06040519081016040528060001515151581526020016001151515158152602001600015151515815260200160011515151581526020016000151515158152602001600115151515815260200160001515151581526020016001151515158152602001600015151515815260200160011515151581526020016000151515158152602001600015151515815260200160011515151581526020016000151515158152602001600115151515815260200160001515151581526020016001151515158152602001600015151515815260200160011515151581526020016001151515158152602001600015151515815260200160011515151581526020016000151515158152602001600115151515815260200160001515151581526020016001151515158152602001600015151515815260200160011515151581526020016000151515158152602001600015151515815260200160011515151581526020016000151515158152602001600115151515815260200160001515151581526020016001151515158152602001600015151515815260200160011515151581525060039060256101b69291906101fc565b50336000806101000a81548173ffffffffffffffffffffffffffffffffffffffff021916908373ffffffffffffffffffffffffffffffffffffffff1602179055506102c5565b826025601f016020900481019282156102845791602002820160005b8382111561025557835183826101000a81548160ff0219169083151502179055509260200192600101602081600001049283019260010302610218565b80156102825782816101000a81549060ff0219169055600101602081600001049283019260010302610255565b505b5090506102919190610295565b5090565b6102c291905b808211156102be57600081816101000a81549060ff02191690555060010161029b565b5090565b90565b6111d580620002d56000396000f3006060604052600436106100c4576000357c0100000000000000000000000000000000000000000000000000000000900463ffffffff1680625834e2146100c9578063084ff5de146100d35780630a7a0807146100f9578063259797d314610128578063435c10c41461016e5780636f4e15db146101b0578063981f08b5146102055780639c080f5d1461022c578063a0c370bf14610279578063b3a5cec6146102be578063bca732011461030b578063ed56d5261461034b578063ef6f4e2414610360575b600080fd5b6100d1610399565b005b34156100de57600080fd5b6100f7600480803560ff16906020019091905050610452565b005b341561010457600080fd5b61010c610545565b604051808260ff1660ff16815260200191505060405180910390f35b341561013357600080fd5b61016c60048080356000191690602001909190803573ffffffffffffffffffffffffffffffffffffffff16906020019091905050610772565b005b341561017957600080fd5b610192600480803560ff16906020019091905050610875565b60405180826000191660001916815260200191505060405180910390f35b34156101bb57600080fd5b6101c36108bc565b604051808273ffffffffffffffffffffffffffffffffffffffff1673ffffffffffffffffffffffffffffffffffffffff16815260200191505060405180910390f35b61022a60048080351515906020019091908035600019169060200190919050506108e5565b005b341561023757600080fd5b610263600480803573ffffffffffffffffffffffffffffffffffffffff16906020019091905050610b24565b6040518082815260200191505060405180910390f35b341561028457600080fd5b6102bc600480803560ff1690602001909190803573ffffffffffffffffffffffffffffffffffffffff16906020019091905050610b6d565b005b34156102c957600080fd5b6102f5600480803573ffffffffffffffffffffffffffffffffffffffff16906020019091905050610d65565b6040518082815260200191505060405180910390f35b341561031657600080fd5b61032f600480803560ff16906020019091905050610d7d565b604051808260ff1660ff16815260200191505060405180910390f35b341561035657600080fd5b61035e610d9e565b005b341561036b57600080fd5b610397600480803573ffffffffffffffffffffffffffffffffffffffff16906020019091905050610e64565b005b6000809054906101000a900473ffffffffffffffffffffffffffffffffffffffff1673ffffffffffffffffffffffffffffffffffffffff163373ffffffffffffffffffffffffffffffffffffffff161415156103f457600080fd5b60003411151561040357600080fd5b34600260003373ffffffffffffffffffffffffffffffffffffffff1673ffffffffffffffffffffffffffffffffffffffff16815260200190815260200160002060008282540192505081905550565b600160003373ffffffffffffffffffffffffffffffffffffffff1673ffffffffffffffffffffffffffffffffffffffff168152602001908152602001600020600201546000191681604051808260ff1660ff167f01000000000000000000000000000000000000000000000000000000000000000281526001019150506040518091039020600019161415156104e757600080fd5b80600160003373ffffffffffffffffffffffffffffffffffffffff1673ffffffffffffffffffffffffffffffffffffffff16815260200190815260200160002060030160006101000a81548160ff021916908360ff16021790555050565b600061054f61115d565b600080600080600080600160003373ffffffffffffffffffffffffffffffffffffffff1673ffffffffffffffffffffffffffffffffffffffff16815260200190815260200160002060e060405190810160405290816000820154600019166000191681526020016001820160009054906101000a900460ff1660ff1660ff1681526020016002820154600019166000191681526020016003820160009054906101000a900460ff1660ff1660ff1681526020016003820160019054906101000a900460ff161515151581526020016004820154815260200160058201548152505096506000876060015160ff161415151561064957600080fd5b6000876020015160ff161415151561066057600080fd5b8660600151876020015118955061067686610d7d565b94508660c00151935060038560ff1660258110151561069157fe5b602091828204019190069054906101000a900460ff169150866080015190508180156106ba5750805b806106dd5750811580156106cc575080155b80156106dc575060008560ff1614155b5b156106ea5733925061070f565b6000809054906101000a900473ffffffffffffffffffffffffffffffffffffffff1692505b83600260008573ffffffffffffffffffffffffffffffffffffffff1673ffffffffffffffffffffffffffffffffffffffff1681526020019081526020016000206000828254019250508190555061076533611031565b8497505050505050505090565b6000809054906101000a900473ffffffffffffffffffffffffffffffffffffffff1673ffffffffffffffffffffffffffffffffffffffff163373ffffffffffffffffffffffffffffffffffffffff161415156107cd57600080fd5b6000600102600160008373ffffffffffffffffffffffffffffffffffffffff1673ffffffffffffffffffffffffffffffffffffffff16815260200190815260200160002060020154600019161415151561082657600080fd5b81600160008373ffffffffffffffffffffffffffffffffffffffff1673ffffffffffffffffffffffffffffffffffffffff16815260200190815260200160002060000181600019169055505050565b600081604051808260ff1660ff167f010000000000000000000000000000000000000000000000000000000000000002815260010191505060405180910390209050919050565b60008060009054906101000a900473ffffffffffffffffffffffffffffffffffffffff16905090565b6000600102600160003373ffffffffffffffffffffffffffffffffffffffff1673ffffffffffffffffffffffffffffffffffffffff168152602001908152602001600020600201546000191614151561093d57600080fd5b600060010281600019161415151561095457600080fd5b34600260008060009054906101000a900473ffffffffffffffffffffffffffffffffffffffff1673ffffffffffffffffffffffffffffffffffffffff1673ffffffffffffffffffffffffffffffffffffffff16815260200190815260200160002054101515156109c357600080fd5b80600160003373ffffffffffffffffffffffffffffffffffffffff1673ffffffffffffffffffffffffffffffffffffffff168152602001908152602001600020600201816000191690555081600160003373ffffffffffffffffffffffffffffffffffffffff1673ffffffffffffffffffffffffffffffffffffffff16815260200190815260200160002060030160016101000a81548160ff02191690831515021790555060023402600160003373ffffffffffffffffffffffffffffffffffffffff1673ffffffffffffffffffffffffffffffffffffffff1681526020019081526020016000206005018190555034600260008060009054906101000a900473ffffffffffffffffffffffffffffffffffffffff1673ffffffffffffffffffffffffffffffffffffffff1673ffffffffffffffffffffffffffffffffffffffff168152602001908152602001600020600082825403925050819055505050565b6000600260008373ffffffffffffffffffffffffffffffffffffffff1673ffffffffffffffffffffffffffffffffffffffff168152602001908152602001600020549050919050565b6000809054906101000a900473ffffffffffffffffffffffffffffffffffffffff1673ffffffffffffffffffffffffffffffffffffffff163373ffffffffffffffffffffffffffffffffffffffff16141515610bc857600080fd5b600160008273ffffffffffffffffffffffffffffffffffffffff1673ffffffffffffffffffffffffffffffffffffffff168152602001908152602001600020600001546000191682604051808260ff1660ff167f0100000000000000000000000000000000000000000000000000000000000000028152600101915050604051809103902060001916141515610c5d57600080fd5b6000600160008373ffffffffffffffffffffffffffffffffffffffff1673ffffffffffffffffffffffffffffffffffffffff16815260200190815260200160002060030160009054906101000a900460ff1660ff1614151515610cbf57600080fd5b81600160008373ffffffffffffffffffffffffffffffffffffffff1673ffffffffffffffffffffffffffffffffffffffff16815260200190815260200160002060010160006101000a81548160ff021916908360ff16021790555043600160008373ffffffffffffffffffffffffffffffffffffffff1673ffffffffffffffffffffffffffffffffffffffff168152602001908152602001600020600401819055505050565b60026020528060005260406000206000915090505481565b600080600790508060ff168360ff16811515610d9557fe5b04915050919050565b6000600260003373ffffffffffffffffffffffffffffffffffffffff1673ffffffffffffffffffffffffffffffffffffffff168152602001908152602001600020819055503373ffffffffffffffffffffffffffffffffffffffff166108fc600260003373ffffffffffffffffffffffffffffffffffffffff1673ffffffffffffffffffffffffffffffffffffffff168152602001908152602001600020549081150290604051600060405180830381858888f193505050501515610e6257600080fd5b565b6000809054906101000a900473ffffffffffffffffffffffffffffffffffffffff1673ffffffffffffffffffffffffffffffffffffffff163373ffffffffffffffffffffffffffffffffffffffff16141515610ebf57600080fd5b6103e8600160008373ffffffffffffffffffffffffffffffffffffffff1673ffffffffffffffffffffffffffffffffffffffff168152602001908152602001600020600401540143111515610f1357600080fd5b6000600160008373ffffffffffffffffffffffffffffffffffffffff1673ffffffffffffffffffffffffffffffffffffffff16815260200190815260200160002060030160009054906101000a900460ff1660ff1614151515610f7557600080fd5b600160008273ffffffffffffffffffffffffffffffffffffffff1673ffffffffffffffffffffffffffffffffffffffff16815260200190815260200160002060050154600260008060009054906101000a900473ffffffffffffffffffffffffffffffffffffffff1673ffffffffffffffffffffffffffffffffffffffff1673ffffffffffffffffffffffffffffffffffffffff1681526020019081526020016000206000828254019250508190555061102e81611031565b50565b60e0604051908101604052806000600102600019168152602001600060ff1681526020016000600102600019168152602001600060ff168152602001600015158152602001600081526020016000815250600160008373ffffffffffffffffffffffffffffffffffffffff1673ffffffffffffffffffffffffffffffffffffffff1681526020019081526020016000206000820151816000019060001916905560208201518160010160006101000a81548160ff021916908360ff1602179055506040820151816002019060001916905560608201518160030160006101000a81548160ff021916908360ff16021790555060808201518160030160016101000a81548160ff02191690831515021790555060a0820151816004015560c0820151816005015590505050565b60e06040519081016040528060008019168152602001600060ff16815260200160008019168152602001600060ff168152602001600015158152602001600081526020016000815250905600a165627a7a72305820e34fefa599a886e9a3ac51539ea227bde75f467d9c8cda8fc50f8932675a767f0029",
  "source": "pragma solidity ^0.4.19;\n\ncontract owned {\n    function owned() public { bankAddress = msg.sender; }\n    address bankAddress;\n\n    modifier onlyOwner {\n        require(msg.sender == bankAddress);\n        _;\n    }\n}\n\n\ncontract roulette is owned {\n\n    struct GameRound {\n        // bank\n        bytes32 storedBankHash;\n        uint8 storedBankValue;\n\n        // user\n        bytes32 storedUserHash;\n        uint8 storedUserValue;\n\n        // game\n        bool storedUserBet;\n        uint256 blockWhenValueSubmitted;\n        uint256 lockedFunds;\n    }\n\n    mapping (address => GameRound) gameRounds;\n    mapping (address => uint256) public registeredFunds;\n\n    bool[37] numberIsRed = [false, true, false, true, false, true, false, true, false, true, false, false, true, false, true, false, true, false, true, true, false, true, false, true, false, true, false, true, false, false, true, false, true, false, true, false, true];\n\n    function resetContractFor(address _address) private {\n        gameRounds[_address] = GameRound(0x0, 0, 0x0, 0, false, 0, 0);\n    }\n\n    function increaseBankFunds() public payable onlyOwner {\n        require(msg.value > 0);\n        registeredFunds[msg.sender] += msg.value;\n    }\n\n    function retrieveMoney() public {\n        registeredFunds[msg.sender] = 0;\n        msg.sender.transfer(registeredFunds[msg.sender]);\n    }\n\n    function showBankAddress() public view returns (address) {\n        return bankAddress;\n    }\n\n    function showBalance(address _address) public view returns (uint256) {\n        return registeredFunds[_address];\n    }\n\n    function placeBet(bool _bet, bytes32 _hash) public payable {\n        require(gameRounds[msg.sender].storedUserHash == 0);\n        require(_hash != 0);\n        require(registeredFunds[bankAddress] >= msg.value);\n\n        gameRounds[msg.sender].storedUserHash = _hash;\n        gameRounds[msg.sender].storedUserBet = _bet;\n        gameRounds[msg.sender].lockedFunds = msg.value * 2;\n        registeredFunds[bankAddress] -= msg.value;\n    }\n\n    function setBankHash(bytes32 _hash, address _address) public onlyOwner {\n        require(gameRounds[_address].storedUserHash != 0);\n\n        gameRounds[_address].storedBankHash = _hash;\n    }\n\n    function sendBankValue(uint8 _value, address _address) public onlyOwner {\n        require(keccak256(_value) == gameRounds[_address].storedBankHash);\n        require(gameRounds[_address].storedUserValue != 0);\n\n        gameRounds[_address].storedBankValue = _value;\n        gameRounds[_address].blockWhenValueSubmitted = block.number;\n    }\n\n    function sendUserValue(uint8 _value) public {\n        require(keccak256(_value) == gameRounds[msg.sender].storedUserHash);\n\n        gameRounds[msg.sender].storedUserValue = _value;\n    }\n\n    function checkUserValueTimeout(address _address) public onlyOwner {\n        require(block.number > (gameRounds[_address].blockWhenValueSubmitted + 1000));\n        require(gameRounds[_address].storedUserValue != 0);\n\n        registeredFunds[bankAddress] += gameRounds[_address].lockedFunds;\n        resetContractFor(_address);\n    }\n\n    function evaluateBet() public returns (uint8) {\n        GameRound memory round = gameRounds[msg.sender];\n\n        require(round.storedUserValue != 0);\n        require(round.storedBankValue != 0);\n\n        uint8 random = round.storedBankValue ^ round.storedUserValue;\n        uint8 number = getRouletteNumber(random);\n        uint256 winningAmount = round.lockedFunds;\n        address winner;\n\n        bool _isRed = numberIsRed[number];\n        bool userBet = round.storedUserBet;\n\n        if ((_isRed && userBet) || (!_isRed && !userBet && number != 0)) {\n            winner = msg.sender;\n        } else {\n            winner = bankAddress;\n        }\n\n        registeredFunds[winner] += winningAmount;\n        resetContractFor(msg.sender);\n        return number;\n    }\n\n    function debugShowHashForValue(uint8 _value) public pure returns (bytes32) {\n        return keccak256(_value);\n    }\n\n    function getRouletteNumber(uint8 _random) public pure returns (uint8) {\n        // uint256 max = 2**256 - 1;\n        uint8 numberDistance = 7; // uint256: max / 37;\n        return _random / numberDistance;\n    }\n}\n",
  "sourcePath": "/Users/markus/solidity/roulette/contracts/roulette.sol",
  "compiler": {
    "name": "solc",
    "version": "0.4.19+commit.c4cbbb05.Emscripten.clang"
  },
  "schemaVersion": "1.0.1",
  "updatedAt": "2018-03-07T14:07:56.383Z"
}