{
  "contractName": "roulette",
  "abi": [
    {
      "constant": false,
      "inputs": [],
      "name": "increaseBankFunds",
      "outputs": [],
      "payable": true,
      "stateMutability": "payable",
      "type": "function"
    },
    {
      "constant": false,
      "inputs": [
        {
          "name": "_value",
          "type": "uint8"
        }
      ],
      "name": "sendUserValue",
      "outputs": [],
      "payable": false,
      "stateMutability": "nonpayable",
      "type": "function"
    },
    {
      "constant": false,
      "inputs": [],
      "name": "evaluateBet",
      "outputs": [],
      "payable": false,
      "stateMutability": "nonpayable",
      "type": "function"
    },
    {
      "constant": false,
      "inputs": [
        {
          "name": "_hash",
          "type": "bytes32"
        },
        {
          "name": "_address",
          "type": "address"
        }
      ],
      "name": "setBankHash",
      "outputs": [],
      "payable": false,
      "stateMutability": "nonpayable",
      "type": "function"
    },
    {
      "constant": true,
      "inputs": [
        {
          "name": "_value",
          "type": "uint8"
        }
      ],
      "name": "debugShowHashForValue",
      "outputs": [
        {
          "name": "",
          "type": "bytes32"
        }
      ],
      "payable": false,
      "stateMutability": "pure",
      "type": "function"
    },
    {
      "constant": true,
      "inputs": [
        {
          "name": "",
          "type": "address"
        }
      ],
      "name": "gameRounds",
      "outputs": [
        {
          "name": "storedBankHash",
          "type": "bytes32"
        },
        {
          "name": "storedBankValue",
          "type": "uint8"
        },
        {
          "name": "storedUserHash",
          "type": "bytes32"
        },
        {
          "name": "storedUserValue",
          "type": "uint8"
        },
        {
          "name": "storedUserBet",
          "type": "bool"
        },
        {
          "name": "blockWhenValueSubmitted",
          "type": "uint256"
        },
        {
          "name": "lockedFunds",
          "type": "uint256"
        }
      ],
      "payable": false,
      "stateMutability": "view",
      "type": "function"
    },
    {
      "constant": true,
      "inputs": [],
      "name": "bankAddress",
      "outputs": [
        {
          "name": "",
          "type": "address"
        }
      ],
      "payable": false,
      "stateMutability": "view",
      "type": "function"
    },
    {
      "constant": true,
      "inputs": [
        {
          "name": "",
          "type": "address"
        }
      ],
      "name": "lastRouletteNumbers",
      "outputs": [
        {
          "name": "",
          "type": "uint8"
        }
      ],
      "payable": false,
      "stateMutability": "view",
      "type": "function"
    },
    {
      "constant": false,
      "inputs": [
        {
          "name": "_bet",
          "type": "bool"
        },
        {
          "name": "_hash",
          "type": "bytes32"
        }
      ],
      "name": "placeBet",
      "outputs": [],
      "payable": true,
      "stateMutability": "payable",
      "type": "function"
    },
    {
      "constant": false,
      "inputs": [
        {
          "name": "_value",
          "type": "uint8"
        },
        {
          "name": "_address",
          "type": "address"
        }
      ],
      "name": "sendBankValue",
      "outputs": [],
      "payable": false,
      "stateMutability": "nonpayable",
      "type": "function"
    },
    {
      "constant": true,
      "inputs": [
        {
          "name": "",
          "type": "address"
        }
      ],
      "name": "registeredFunds",
      "outputs": [
        {
          "name": "",
          "type": "uint256"
        }
      ],
      "payable": false,
      "stateMutability": "view",
      "type": "function"
    },
    {
      "constant": true,
      "inputs": [
        {
          "name": "_random",
          "type": "uint8"
        }
      ],
      "name": "getRouletteNumber",
      "outputs": [
        {
          "name": "",
          "type": "uint8"
        }
      ],
      "payable": false,
      "stateMutability": "pure",
      "type": "function"
    },
    {
      "constant": false,
      "inputs": [],
      "name": "retrieveMoney",
      "outputs": [],
      "payable": false,
      "stateMutability": "nonpayable",
      "type": "function"
    },
    {
      "constant": false,
      "inputs": [
        {
          "name": "_address",
          "type": "address"
        }
      ],
      "name": "checkUserValueTimeout",
      "outputs": [],
      "payable": false,
      "stateMutability": "nonpayable",
      "type": "function"
    },
    {
      "anonymous": false,
      "inputs": [
        {
          "indexed": false,
          "name": "_address",
          "type": "address"
        }
      ],
      "name": "FundsChanged",
      "type": "event"
    },
    {
      "anonymous": false,
      "inputs": [
        {
          "indexed": false,
          "name": "userAddress",
          "type": "address"
        }
      ],
      "name": "BankValueWasSet",
      "type": "event"
    }
  ],
  "bytecode": "0x60606040526104a0604051908101604052806000151515158152602001600115151515815260200160001515151581526020016001151515158152602001600015151515815260200160011515151581526020016000151515158152602001600115151515815260200160001515151581526020016001151515158152602001600015151515815260200160001515151581526020016001151515158152602001600015151515815260200160011515151581526020016000151515158152602001600115151515815260200160001515151581526020016001151515158152602001600115151515815260200160001515151581526020016001151515158152602001600015151515815260200160011515151581526020016000151515158152602001600115151515815260200160001515151581526020016001151515158152602001600015151515815260200160001515151581526020016001151515158152602001600015151515815260200160011515151581526020016000151515158152602001600115151515815260200160001515151581526020016001151515158152506004906025620001b8929190620001ff565b50336000806101000a81548173ffffffffffffffffffffffffffffffffffffffff021916908373ffffffffffffffffffffffffffffffffffffffff160217905550620002d2565b826025601f016020900481019282156200028c5791602002820160005b838211156200025b57835183826101000a81548160ff02191690831515021790555092602001926001016020816000010492830192600103026200021c565b80156200028a5782816101000a81549060ff02191690556001016020816000010492830192600103026200025b565b505b5090506200029b91906200029f565b5090565b620002cf91905b80821115620002cb57600081816101000a81549060ff021916905550600101620002a6565b5090565b90565b6117b480620002e26000396000f3006060604052600436106100cf576000357c0100000000000000000000000000000000000000000000000000000000900463ffffffff1680625834e2146100d4578063084ff5de146100de5780630a7a080714610104578063259797d314610119578063435c10c41461015f57806364ea9576146101a15780637822ed4914610238578063892d899e1461028d578063981f08b5146102e0578063a0c370bf14610307578063b3a5cec61461034c578063bca7320114610399578063ed56d526146103d9578063ef6f4e24146103ee575b600080fd5b6100dc610427565b005b34156100e957600080fd5b610102600480803560ff16906020019091905050610585565b005b341561010f57600080fd5b6101176106d9565b005b341561012457600080fd5b61015d60048080356000191690602001909190803573ffffffffffffffffffffffffffffffffffffffff16906020019091905050610a8d565b005b341561016a57600080fd5b610183600480803560ff16906020019091905050610be8565b60405180826000191660001916815260200191505060405180910390f35b34156101ac57600080fd5b6101d8600480803573ffffffffffffffffffffffffffffffffffffffff16906020019091905050610c2f565b6040518088600019166000191681526020018760ff1660ff16815260200186600019166000191681526020018560ff1660ff1681526020018415151515815260200183815260200182815260200197505050505050505060405180910390f35b341561024357600080fd5b61024b610c98565b604051808273ffffffffffffffffffffffffffffffffffffffff1673ffffffffffffffffffffffffffffffffffffffff16815260200191505060405180910390f35b341561029857600080fd5b6102c4600480803573ffffffffffffffffffffffffffffffffffffffff16906020019091905050610cbd565b604051808260ff1660ff16815260200191505060405180910390f35b6103056004808035151590602001909190803560001916906020019091905050610cdd565b005b341561031257600080fd5b61034a600480803560ff1690602001909190803573ffffffffffffffffffffffffffffffffffffffff16906020019091905050610fa0565b005b341561035757600080fd5b610383600480803573ffffffffffffffffffffffffffffffffffffffff1690602001909190505061125c565b6040518082815260200191505060405180910390f35b34156103a457600080fd5b6103bd600480803560ff16906020019091905050611274565b604051808260ff1660ff16815260200191505060405180910390f35b34156103e457600080fd5b6103ec611295565b005b34156103f957600080fd5b610425600480803573ffffffffffffffffffffffffffffffffffffffff1690602001909190505061140c565b005b6000809054906101000a900473ffffffffffffffffffffffffffffffffffffffff1673ffffffffffffffffffffffffffffffffffffffff163373ffffffffffffffffffffffffffffffffffffffff1614151561048257600080fd5b60003411151561049157600080fd5b34600360008060009054906101000a900473ffffffffffffffffffffffffffffffffffffffff1673ffffffffffffffffffffffffffffffffffffffff1673ffffffffffffffffffffffffffffffffffffffff168152602001908152602001600020600082825401925050819055507f51fd0edd23fd7142fe725a87967576a1ffb5f2429f8efb02526b487fd52804e56000809054906101000a900473ffffffffffffffffffffffffffffffffffffffff16604051808273ffffffffffffffffffffffffffffffffffffffff1673ffffffffffffffffffffffffffffffffffffffff16815260200191505060405180910390a1565b600160003373ffffffffffffffffffffffffffffffffffffffff1673ffffffffffffffffffffffffffffffffffffffff168152602001908152602001600020600201546000191681604051808260ff1660ff167f010000000000000000000000000000000000000000000000000000000000000002815260010191505060405180910390206000191614151561061a57600080fd5b6000600160003373ffffffffffffffffffffffffffffffffffffffff1673ffffffffffffffffffffffffffffffffffffffff16815260200190815260200160002060030160009054906101000a900460ff1660ff1614151561067b57600080fd5b80600160003373ffffffffffffffffffffffffffffffffffffffff1673ffffffffffffffffffffffffffffffffffffffff16815260200190815260200160002060030160006101000a81548160ff021916908360ff16021790555050565b6000806000806000806000600160003373ffffffffffffffffffffffffffffffffffffffff1673ffffffffffffffffffffffffffffffffffffffff16815260200190815260200160002060030160009054906101000a900460ff1660ff161415151561074457600080fd5b6000600160003373ffffffffffffffffffffffffffffffffffffffff1673ffffffffffffffffffffffffffffffffffffffff16815260200190815260200160002060010160009054906101000a900460ff1660ff16141515156107a657600080fd5b600160003373ffffffffffffffffffffffffffffffffffffffff1673ffffffffffffffffffffffffffffffffffffffff16815260200190815260200160002060030160009054906101000a900460ff16600160003373ffffffffffffffffffffffffffffffffffffffff1673ffffffffffffffffffffffffffffffffffffffff16815260200190815260200160002060010160009054906101000a900460ff1618955061085286611274565b9450600160003373ffffffffffffffffffffffffffffffffffffffff1673ffffffffffffffffffffffffffffffffffffffff16815260200190815260200160002060050154935060048560ff166025811015156108ab57fe5b602091828204019190069054906101000a900460ff169150600160003373ffffffffffffffffffffffffffffffffffffffff1673ffffffffffffffffffffffffffffffffffffffff16815260200190815260200160002060030160019054906101000a900460ff16905081801561091f5750805b80610942575081158015610931575080155b8015610941575060008560ff1614155b5b1561094f57339250610974565b6000809054906101000a900473ffffffffffffffffffffffffffffffffffffffff1692505b7f51fd0edd23fd7142fe725a87967576a1ffb5f2429f8efb02526b487fd52804e583604051808273ffffffffffffffffffffffffffffffffffffffff1673ffffffffffffffffffffffffffffffffffffffff16815260200191505060405180910390a183600360008573ffffffffffffffffffffffffffffffffffffffff1673ffffffffffffffffffffffffffffffffffffffff1681526020019081526020016000206000828254019250508190555084600260003373ffffffffffffffffffffffffffffffffffffffff1673ffffffffffffffffffffffffffffffffffffffff16815260200190815260200160002060006101000a81548160ff021916908360ff160217905550610a853361165c565b505050505050565b6000809054906101000a900473ffffffffffffffffffffffffffffffffffffffff1673ffffffffffffffffffffffffffffffffffffffff163373ffffffffffffffffffffffffffffffffffffffff16141515610ae857600080fd5b6000600102600160008373ffffffffffffffffffffffffffffffffffffffff1673ffffffffffffffffffffffffffffffffffffffff168152602001908152602001600020600201546000191614151515610b4157600080fd5b6000600102600160008373ffffffffffffffffffffffffffffffffffffffff1673ffffffffffffffffffffffffffffffffffffffff1681526020019081526020016000206000015460001916141515610b9957600080fd5b81600160008373ffffffffffffffffffffffffffffffffffffffff1673ffffffffffffffffffffffffffffffffffffffff16815260200190815260200160002060000181600019169055505050565b600081604051808260ff1660ff167f010000000000000000000000000000000000000000000000000000000000000002815260010191505060405180910390209050919050565b60016020528060005260406000206000915090508060000154908060010160009054906101000a900460ff16908060020154908060030160009054906101000a900460ff16908060030160019054906101000a900460ff16908060040154908060050154905087565b6000809054906101000a900473ffffffffffffffffffffffffffffffffffffffff1681565b60026020528060005260406000206000915054906101000a900460ff1681565b6000600102600160003373ffffffffffffffffffffffffffffffffffffffff1673ffffffffffffffffffffffffffffffffffffffff1681526020019081526020016000206002015460001916141515610d3557600080fd5b6000600102816000191614151515610d4c57600080fd5b34600360008060009054906101000a900473ffffffffffffffffffffffffffffffffffffffff1673ffffffffffffffffffffffffffffffffffffffff1673ffffffffffffffffffffffffffffffffffffffff1681526020019081526020016000205410151515610dbb57600080fd5b80600160003373ffffffffffffffffffffffffffffffffffffffff1673ffffffffffffffffffffffffffffffffffffffff168152602001908152602001600020600201816000191690555081600160003373ffffffffffffffffffffffffffffffffffffffff1673ffffffffffffffffffffffffffffffffffffffff16815260200190815260200160002060030160016101000a81548160ff02191690831515021790555060023402600160003373ffffffffffffffffffffffffffffffffffffffff1673ffffffffffffffffffffffffffffffffffffffff1681526020019081526020016000206005018190555034600360008060009054906101000a900473ffffffffffffffffffffffffffffffffffffffff1673ffffffffffffffffffffffffffffffffffffffff1673ffffffffffffffffffffffffffffffffffffffff168152602001908152602001600020600082825403925050819055507f51fd0edd23fd7142fe725a87967576a1ffb5f2429f8efb02526b487fd52804e56000809054906101000a900473ffffffffffffffffffffffffffffffffffffffff16604051808273ffffffffffffffffffffffffffffffffffffffff1673ffffffffffffffffffffffffffffffffffffffff16815260200191505060405180910390a15050565b6000809054906101000a900473ffffffffffffffffffffffffffffffffffffffff1673ffffffffffffffffffffffffffffffffffffffff163373ffffffffffffffffffffffffffffffffffffffff16141515610ffb57600080fd5b600160008273ffffffffffffffffffffffffffffffffffffffff1673ffffffffffffffffffffffffffffffffffffffff168152602001908152602001600020600001546000191682604051808260ff1660ff167f010000000000000000000000000000000000000000000000000000000000000002815260010191505060405180910390206000191614151561109057600080fd5b6000600160008373ffffffffffffffffffffffffffffffffffffffff1673ffffffffffffffffffffffffffffffffffffffff16815260200190815260200160002060030160009054906101000a900460ff1660ff16141515156110f257600080fd5b6000600160008373ffffffffffffffffffffffffffffffffffffffff1673ffffffffffffffffffffffffffffffffffffffff16815260200190815260200160002060010160009054906101000a900460ff1660ff1614151561115357600080fd5b81600160008373ffffffffffffffffffffffffffffffffffffffff1673ffffffffffffffffffffffffffffffffffffffff16815260200190815260200160002060010160006101000a81548160ff021916908360ff16021790555043600160008373ffffffffffffffffffffffffffffffffffffffff1673ffffffffffffffffffffffffffffffffffffffff168152602001908152602001600020600401819055507fc67c944d688ad1ca3feafdbdeacbc9be460a690cca8825307970cf94e8fa629681604051808273ffffffffffffffffffffffffffffffffffffffff1673ffffffffffffffffffffffffffffffffffffffff16815260200191505060405180910390a15050565b60036020528060005260406000206000915090505481565b600080600790508060ff168360ff1681151561128c57fe5b04915050919050565b6000600360003373ffffffffffffffffffffffffffffffffffffffff1673ffffffffffffffffffffffffffffffffffffffff168152602001908152602001600020541115156112e357600080fd5b6000600360003373ffffffffffffffffffffffffffffffffffffffff1673ffffffffffffffffffffffffffffffffffffffff168152602001908152602001600020819055507f51fd0edd23fd7142fe725a87967576a1ffb5f2429f8efb02526b487fd52804e533604051808273ffffffffffffffffffffffffffffffffffffffff1673ffffffffffffffffffffffffffffffffffffffff16815260200191505060405180910390a13373ffffffffffffffffffffffffffffffffffffffff166108fc600360003373ffffffffffffffffffffffffffffffffffffffff1673ffffffffffffffffffffffffffffffffffffffff168152602001908152602001600020549081150290604051600060405180830381858888f19350505050151561140a57600080fd5b565b6000809054906101000a900473ffffffffffffffffffffffffffffffffffffffff1673ffffffffffffffffffffffffffffffffffffffff163373ffffffffffffffffffffffffffffffffffffffff1614151561146757600080fd5b6103e8600160008373ffffffffffffffffffffffffffffffffffffffff1673ffffffffffffffffffffffffffffffffffffffff1681526020019081526020016000206004015401431115156114bb57600080fd5b6000600160008373ffffffffffffffffffffffffffffffffffffffff1673ffffffffffffffffffffffffffffffffffffffff16815260200190815260200160002060030160009054906101000a900460ff1660ff1614151561151c57600080fd5b600160008273ffffffffffffffffffffffffffffffffffffffff1673ffffffffffffffffffffffffffffffffffffffff16815260200190815260200160002060050154600360008060009054906101000a900473ffffffffffffffffffffffffffffffffffffffff1673ffffffffffffffffffffffffffffffffffffffff1673ffffffffffffffffffffffffffffffffffffffff168152602001908152602001600020600082825401925050819055507f51fd0edd23fd7142fe725a87967576a1ffb5f2429f8efb02526b487fd52804e56000809054906101000a900473ffffffffffffffffffffffffffffffffffffffff16604051808273ffffffffffffffffffffffffffffffffffffffff1673ffffffffffffffffffffffffffffffffffffffff16815260200191505060405180910390a16116598161165c565b50565b60e0604051908101604052806000600102600019168152602001600060ff1681526020016000600102600019168152602001600060ff168152602001600015158152602001600081526020016000815250600160008373ffffffffffffffffffffffffffffffffffffffff1673ffffffffffffffffffffffffffffffffffffffff1681526020019081526020016000206000820151816000019060001916905560208201518160010160006101000a81548160ff021916908360ff1602179055506040820151816002019060001916905560608201518160030160006101000a81548160ff021916908360ff16021790555060808201518160030160016101000a81548160ff02191690831515021790555060a0820151816004015560c08201518160050155905050505600a165627a7a72305820256a8f4ebdf51241f33580b21dc896dcf7b554cec5afe2dc5affdd39a773e8900029",
  "source": "pragma solidity ^0.4.19;\n\ncontract owned {\n    function owned() public { bankAddress = msg.sender; }\n    address public bankAddress;\n\n    modifier onlyOwner {\n        require(msg.sender == bankAddress);\n        _;\n    }\n}\n\ncontract roulette is owned {\n\n    struct GameRound {\n        // bank\n        bytes32 storedBankHash;\n        uint8 storedBankValue;\n\n        // user\n        bytes32 storedUserHash;\n        uint8 storedUserValue;\n\n        // game\n        bool storedUserBet;\n        uint256 blockWhenValueSubmitted;\n        uint256 lockedFunds;\n    }\n\n    event FundsChanged(address _address);\n    event BankValueWasSet(address userAddress);\n\n    mapping (address => GameRound) public gameRounds;\n    mapping (address => uint8) public lastRouletteNumbers;\n    mapping (address => uint256) public registeredFunds;\n\n    bool[37] numberIsRed = [false, true, false, true, false, true, false, true, false, true, false, false, true, false, true, false, true, false, true, true, false, true, false, true, false, true, false, true, false, false, true, false, true, false, true, false, true];\n\n    function resetContractFor(address _address) private {\n        gameRounds[_address] = GameRound(0x0, 0, 0x0, 0, false, 0, 0);\n    }\n\n    function increaseBankFunds() external payable onlyOwner {\n        require(msg.value > 0);\n        registeredFunds[bankAddress] += msg.value;\n        FundsChanged(bankAddress);\n    }\n\n    function retrieveMoney() external {\n        require (registeredFunds[msg.sender] > 0);\n\n        registeredFunds[msg.sender] = 0;\n        FundsChanged(msg.sender);\n\n        msg.sender.transfer(registeredFunds[msg.sender]);\n    }\n\n    function placeBet(bool _bet, bytes32 _hash) external payable {\n        require(gameRounds[msg.sender].storedUserHash == 0);\n        require(_hash != 0);\n        require(registeredFunds[bankAddress] >= msg.value);\n\n        gameRounds[msg.sender].storedUserHash = _hash;\n        gameRounds[msg.sender].storedUserBet = _bet;\n        gameRounds[msg.sender].lockedFunds = msg.value * 2;\n        registeredFunds[bankAddress] -= msg.value;\n        FundsChanged(bankAddress);\n    }\n\n    function setBankHash(bytes32 _hash, address _address) external onlyOwner {\n        require(gameRounds[_address].storedUserHash != 0);\n        require(gameRounds[_address].storedBankHash == 0);\n\n        gameRounds[_address].storedBankHash = _hash;\n    }\n\n    function sendBankValue(uint8 _value, address _address) external onlyOwner {\n        require(keccak256(_value) == gameRounds[_address].storedBankHash);\n        require(gameRounds[_address].storedUserValue != 0);\n        require(gameRounds[_address].storedBankValue == 0);\n\n        gameRounds[_address].storedBankValue = _value;\n        gameRounds[_address].blockWhenValueSubmitted = block.number;\n        BankValueWasSet(_address);\n    }\n\n    function sendUserValue(uint8 _value) external {\n        require(keccak256(_value) == gameRounds[msg.sender].storedUserHash);\n        require(gameRounds[msg.sender].storedUserValue == 0);\n\n        gameRounds[msg.sender].storedUserValue = _value;\n    }\n\n    function checkUserValueTimeout(address _address) external onlyOwner {\n        require(block.number > (gameRounds[_address].blockWhenValueSubmitted + 1000));\n        require(gameRounds[_address].storedUserValue == 0);\n\n        registeredFunds[bankAddress] += gameRounds[_address].lockedFunds;\n        FundsChanged(bankAddress);\n        resetContractFor(_address);\n    }\n\n    function evaluateBet() external {\n        require(gameRounds[msg.sender].storedUserValue != 0);\n        require(gameRounds[msg.sender].storedBankValue != 0);\n\n        uint8 random = gameRounds[msg.sender].storedBankValue\n                ^ gameRounds[msg.sender].storedUserValue;\n        uint8 number = getRouletteNumber(random);\n        uint256 winningAmount = gameRounds[msg.sender].lockedFunds;\n        address winner;\n\n        bool isRed = numberIsRed[number];\n        bool userBet = gameRounds[msg.sender].storedUserBet;\n\n        if ((isRed && userBet) || (!isRed && !userBet && number != 0)) {\n            winner = msg.sender;\n        } else {\n            winner = bankAddress;\n        }\n\n        FundsChanged(winner);\n        registeredFunds[winner] += winningAmount;\n        lastRouletteNumbers[msg.sender] = number;\n        resetContractFor(msg.sender);\n    }\n\n    function debugShowHashForValue(uint8 _value) external pure returns (bytes32) {\n        return keccak256(_value);\n    }\n\n    function getRouletteNumber(uint8 _random) public pure returns (uint8) {\n        // TODO public -> private\n        // uint256 max = 2**256 - 1;\n        uint8 numberDistance = 7; // uint256: max / 37;\n        return _random / numberDistance;\n    }\n}\n",
  "sourcePath": "/Users/markus/solidity/RouletteContract/contracts/roulette.sol",
  "compiler": {
    "name": "solc",
    "version": "0.4.19+commit.c4cbbb05.Emscripten.clang"
  },
  "schemaVersion": "1.0.1",
  "updatedAt": "2018-03-12T14:47:44.831Z"
}