{
  "contractName": "roulette",
  "abi": [
    {
      "constant": false,
      "inputs": [],
      "name": "increaseBankFunds",
      "outputs": [],
      "payable": true,
      "stateMutability": "payable",
      "type": "function"
    },
    {
      "constant": false,
      "inputs": [
        {
          "name": "_value",
          "type": "uint8"
        }
      ],
      "name": "sendUserValue",
      "outputs": [],
      "payable": false,
      "stateMutability": "nonpayable",
      "type": "function"
    },
    {
      "constant": false,
      "inputs": [],
      "name": "evaluateBet",
      "outputs": [
        {
          "name": "",
          "type": "uint8"
        }
      ],
      "payable": false,
      "stateMutability": "nonpayable",
      "type": "function"
    },
    {
      "constant": true,
      "inputs": [
        {
          "name": "_value",
          "type": "uint8"
        }
      ],
      "name": "debugShowHashForValue",
      "outputs": [
        {
          "name": "",
          "type": "bytes32"
        }
      ],
      "payable": false,
      "stateMutability": "pure",
      "type": "function"
    },
    {
      "constant": true,
      "inputs": [],
      "name": "showBankAddress",
      "outputs": [
        {
          "name": "",
          "type": "address"
        }
      ],
      "payable": false,
      "stateMutability": "view",
      "type": "function"
    },
    {
      "constant": false,
      "inputs": [
        {
          "name": "_bet",
          "type": "bool"
        },
        {
          "name": "_hash",
          "type": "bytes32"
        }
      ],
      "name": "placeBet",
      "outputs": [],
      "payable": true,
      "stateMutability": "payable",
      "type": "function"
    },
    {
      "constant": true,
      "inputs": [
        {
          "name": "_address",
          "type": "address"
        }
      ],
      "name": "showBalance",
      "outputs": [
        {
          "name": "",
          "type": "uint256"
        }
      ],
      "payable": false,
      "stateMutability": "view",
      "type": "function"
    },
    {
      "constant": false,
      "inputs": [
        {
          "name": "_hash",
          "type": "bytes32"
        }
      ],
      "name": "setBankHash",
      "outputs": [],
      "payable": false,
      "stateMutability": "nonpayable",
      "type": "function"
    },
    {
      "constant": false,
      "inputs": [],
      "name": "resetContract",
      "outputs": [],
      "payable": false,
      "stateMutability": "nonpayable",
      "type": "function"
    },
    {
      "constant": true,
      "inputs": [
        {
          "name": "",
          "type": "address"
        }
      ],
      "name": "registeredFunds",
      "outputs": [
        {
          "name": "",
          "type": "uint256"
        }
      ],
      "payable": false,
      "stateMutability": "view",
      "type": "function"
    },
    {
      "constant": true,
      "inputs": [
        {
          "name": "",
          "type": "address"
        }
      ],
      "name": "lockedFunds",
      "outputs": [
        {
          "name": "",
          "type": "uint256"
        }
      ],
      "payable": false,
      "stateMutability": "view",
      "type": "function"
    },
    {
      "constant": true,
      "inputs": [
        {
          "name": "_random",
          "type": "uint8"
        }
      ],
      "name": "getRouletteNumber",
      "outputs": [
        {
          "name": "",
          "type": "uint8"
        }
      ],
      "payable": false,
      "stateMutability": "pure",
      "type": "function"
    },
    {
      "constant": false,
      "inputs": [],
      "name": "checkUserValueTimeout",
      "outputs": [],
      "payable": false,
      "stateMutability": "nonpayable",
      "type": "function"
    },
    {
      "constant": false,
      "inputs": [
        {
          "name": "_value",
          "type": "uint8"
        }
      ],
      "name": "sendBankValue",
      "outputs": [],
      "payable": false,
      "stateMutability": "nonpayable",
      "type": "function"
    },
    {
      "constant": false,
      "inputs": [],
      "name": "retrieveMoney",
      "outputs": [],
      "payable": false,
      "stateMutability": "nonpayable",
      "type": "function"
    }
  ],
  "bytecode": "0x606060405261024060405190810160405280600160ff168152602001600360ff168152602001600560ff168152602001600760ff168152602001600960ff168152602001600c60ff168152602001600e60ff168152602001601060ff168152602001601260ff168152602001601360ff168152602001601560ff168152602001601760ff168152602001601960ff168152602001601b60ff168152602001601e60ff168152602001602060ff168152602001602260ff168152602001602460ff1681525060089060126100d3929190610119565b50336000806101000a81548173ffffffffffffffffffffffffffffffffffffffff021916908373ffffffffffffffffffffffffffffffffffffffff1602179055506101f0565b82805482825590600052602060002090601f016020900481019282156101af5791602002820160005b8382111561018057835183826101000a81548160ff021916908360ff1602179055509260200192600101602081600001049283019260010302610142565b80156101ad5782816101000a81549060ff0219169055600101602081600001049283019260010302610180565b505b5090506101bc91906101c0565b5090565b6101ed91905b808211156101e957600081816101000a81549060ff0219169055506001016101c6565b5090565b90565b61108e806101ff6000396000f3006060604052600436106100da576000357c0100000000000000000000000000000000000000000000000000000000900463ffffffff1680625834e2146100df578063084ff5de146100e95780630a7a08071461010f578063435c10c41461013e5780636f4e15db14610180578063981f08b5146101d55780639c080f5d146101fc5780639d7bd0ef14610249578063b181a8fc14610270578063b3a5cec614610285578063b86247d7146102d2578063bca732011461031f578063db60aab31461035f578063ea71777c14610374578063ed56d5261461039a575b600080fd5b6100e76103af565b005b34156100f457600080fd5b61010d600480803560ff16906020019091905050610468565b005b341561011a57600080fd5b6101226104db565b604051808260ff1660ff16815260200191505060405180910390f35b341561014957600080fd5b610162600480803560ff1690602001909190505061086e565b60405180826000191660001916815260200191505060405180910390f35b341561018b57600080fd5b6101936108b5565b604051808273ffffffffffffffffffffffffffffffffffffffff1673ffffffffffffffffffffffffffffffffffffffff16815260200191505060405180910390f35b6101fa60048080351515906020019091908035600019169060200190919050506108de565b005b341561020757600080fd5b610233600480803573ffffffffffffffffffffffffffffffffffffffff16906020019091905050610b12565b6040518082815260200191505060405180910390f35b341561025457600080fd5b61026e600480803560001916906020019091905050610b5b565b005b341561027b57600080fd5b610283610be4565b005b341561029057600080fd5b6102bc600480803573ffffffffffffffffffffffffffffffffffffffff16906020019091905050610cfc565b6040518082815260200191505060405180910390f35b34156102dd57600080fd5b610309600480803573ffffffffffffffffffffffffffffffffffffffff16906020019091905050610d14565b6040518082815260200191505060405180910390f35b341561032a57600080fd5b610343600480803560ff16906020019091905050610d2c565b604051808260ff1660ff16815260200191505060405180910390f35b341561036a57600080fd5b610372610d4d565b005b341561037f57600080fd5b610398600480803560ff16906020019091905050610f13565b005b34156103a557600080fd5b6103ad610fe1565b005b6000809054906101000a900473ffffffffffffffffffffffffffffffffffffffff1673ffffffffffffffffffffffffffffffffffffffff163373ffffffffffffffffffffffffffffffffffffffff1614151561040a57600080fd5b60003411151561041957600080fd5b34600660003373ffffffffffffffffffffffffffffffffffffffff1673ffffffffffffffffffffffffffffffffffffffff16815260200190815260200160002060008282540192505081905550565b6003546000191681604051808260ff1660ff167f01000000000000000000000000000000000000000000000000000000000000000281526001019150506040518091039020600019161415156104bd57600080fd5b80600460006101000a81548160ff021916908360ff16021790555050565b6000806000806000806000806000600460009054906101000a900460ff1660ff161415801561051d57506000600260009054906101000a900460ff1660ff1614155b151561052857600080fd5b600460009054906101000a900460ff16600260009054906101000a900460ff1618965061055487610d2c565b9550600260076000600460019054906101000a900473ffffffffffffffffffffffffffffffffffffffff1673ffffffffffffffffffffffffffffffffffffffff1673ffffffffffffffffffffffffffffffffffffffff168152602001908152602001600020540294506000925060099150600090505b60058160ff1610156106a85760088260ff168154811015156105e857fe5b90600052602060002090602091828204019190069054906101000a900460ff1660ff168660ff16141561061e57600192506106a8565b60088260ff1681548110151561063057fe5b90600052602060002090602091828204019190069054906101000a900460ff1660ff168660ff161015610684578060020a60ff16600181151561066f57fe5b0460ff168260ff1681151561068057fe5b0491505b8060020a60ff16600181151561069657fe5b048202915080806001019150506105ca565b8280156106c15750600460159054906101000a900460ff165b806106f35750821580156106e25750600460159054906101000a900460ff16155b80156106f2575060008660ff1614155b5b1561072257600460019054906101000a900473ffffffffffffffffffffffffffffffffffffffff169350610747565b6000809054906101000a900473ffffffffffffffffffffffffffffffffffffffff1693505b6000600760008060009054906101000a900473ffffffffffffffffffffffffffffffffffffffff1673ffffffffffffffffffffffffffffffffffffffff1673ffffffffffffffffffffffffffffffffffffffff16815260200190815260200160002081905550600060076000600460019054906101000a900473ffffffffffffffffffffffffffffffffffffffff1673ffffffffffffffffffffffffffffffffffffffff1673ffffffffffffffffffffffffffffffffffffffff1681526020019081526020016000208190555084600660008673ffffffffffffffffffffffffffffffffffffffff1673ffffffffffffffffffffffffffffffffffffffff168152602001908152602001600020600082825401925050819055508597505050505050505090565b600081604051808260ff1660ff167f010000000000000000000000000000000000000000000000000000000000000002815260010191505060405180910390209050919050565b60008060009054906101000a900473ffffffffffffffffffffffffffffffffffffffff16905090565b6000600460019054906101000a900473ffffffffffffffffffffffffffffffffffffffff1673ffffffffffffffffffffffffffffffffffffffff16148015610986575034600660008060009054906101000a900473ffffffffffffffffffffffffffffffffffffffff1673ffffffffffffffffffffffffffffffffffffffff1673ffffffffffffffffffffffffffffffffffffffff1681526020019081526020016000205410155b151561099157600080fd5b33600460016101000a81548173ffffffffffffffffffffffffffffffffffffffff021916908373ffffffffffffffffffffffffffffffffffffffff160217905550806003816000191690555081600460156101000a81548160ff02191690831515021790555034600760003373ffffffffffffffffffffffffffffffffffffffff1673ffffffffffffffffffffffffffffffffffffffff1681526020019081526020016000208190555034600660008060009054906101000a900473ffffffffffffffffffffffffffffffffffffffff1673ffffffffffffffffffffffffffffffffffffffff1673ffffffffffffffffffffffffffffffffffffffff1681526020019081526020016000206000828254039250508190555034600760008060009054906101000a900473ffffffffffffffffffffffffffffffffffffffff1673ffffffffffffffffffffffffffffffffffffffff1673ffffffffffffffffffffffffffffffffffffffff168152602001908152602001600020819055505050565b6000600660008373ffffffffffffffffffffffffffffffffffffffff1673ffffffffffffffffffffffffffffffffffffffff168152602001908152602001600020549050919050565b6000809054906101000a900473ffffffffffffffffffffffffffffffffffffffff1673ffffffffffffffffffffffffffffffffffffffff163373ffffffffffffffffffffffffffffffffffffffff16141515610bb657600080fd5b60006001026003546000191614151515610bcf57600080fd5b80600181600019169055504360058190555050565b6000809054906101000a900473ffffffffffffffffffffffffffffffffffffffff1673ffffffffffffffffffffffffffffffffffffffff163373ffffffffffffffffffffffffffffffffffffffff16141515610c3f57600080fd5b6000600102600181600019169055506000600260006101000a81548160ff021916908360ff1602179055506000600102600381600019169055506000600460006101000a81548160ff021916908360ff1602179055506000600460016101000a81548173ffffffffffffffffffffffffffffffffffffffff021916908373ffffffffffffffffffffffffffffffffffffffff1602179055506000600460156101000a81548160ff0219169083151502179055506000600581905550565b60066020528060005260406000206000915090505481565b60076020528060005260406000206000915090505481565b600080600790508060ff168360ff16811515610d4457fe5b04915050919050565b6000809054906101000a900473ffffffffffffffffffffffffffffffffffffffff1673ffffffffffffffffffffffffffffffffffffffff163373ffffffffffffffffffffffffffffffffffffffff16141515610da857600080fd5b6103e86005540143118015610dd057506000600460009054906101000a900460ff1660ff1614155b1515610ddb57600080fd5b60076000600460019054906101000a900473ffffffffffffffffffffffffffffffffffffffff1673ffffffffffffffffffffffffffffffffffffffff1673ffffffffffffffffffffffffffffffffffffffff16815260200190815260200160002054600660008060009054906101000a900473ffffffffffffffffffffffffffffffffffffffff1673ffffffffffffffffffffffffffffffffffffffff1673ffffffffffffffffffffffffffffffffffffffff16815260200190815260200160002060008282540192505081905550600060076000600460019054906101000a900473ffffffffffffffffffffffffffffffffffffffff1673ffffffffffffffffffffffffffffffffffffffff1673ffffffffffffffffffffffffffffffffffffffff16815260200190815260200160002081905550565b6000809054906101000a900473ffffffffffffffffffffffffffffffffffffffff1673ffffffffffffffffffffffffffffffffffffffff163373ffffffffffffffffffffffffffffffffffffffff16141515610f6e57600080fd5b6001546000191681604051808260ff1660ff167f0100000000000000000000000000000000000000000000000000000000000000028152600101915050604051809103902060001916141515610fc357600080fd5b80600260006101000a81548160ff021916908360ff16021790555050565b3373ffffffffffffffffffffffffffffffffffffffff166108fc600660003373ffffffffffffffffffffffffffffffffffffffff1673ffffffffffffffffffffffffffffffffffffffff168152602001908152602001600020549081150290604051600060405180830381858888f19350505050151561106057600080fd5b5600a165627a7a723058206109c87af786cd3fc223946920680d56da17e1d9cf2ce146f97f28ebd83350490029",
  "source": "pragma solidity ^0.4.19;\n\ncontract owned {\n    function owned() public { bankAddress = msg.sender; }\n    address bankAddress;\n\n    modifier onlyOwner {\n        require(msg.sender == bankAddress);\n        _;\n    }\n}\n\n\ncontract roulette is owned {\n    // bank\n    bytes32 storedBankHash;\n    uint8 storedBankValue;\n\n    // user\n    bytes32 storedUserHash;\n    uint8 storedUserValue;\n    address userAddress;\n\n    // game\n    bool storedUserBet;\n    uint256 blockWhenValuesSubmitted;\n    mapping (address => uint256) public registeredFunds;\n    mapping (address => uint256) public lockedFunds;\n\n    uint8[] redNumbers = [1,3,5,7,9,12,14,16,18,19,21,23,25,27,30,32,34,36];\n\n    function resetContract() public onlyOwner {\n        storedBankHash = 0x0;\n        storedBankValue = 0;\n        storedUserHash = 0x0;\n        storedUserValue = 0;\n        userAddress = 0x0;\n        storedUserBet = false;\n        blockWhenValuesSubmitted = 0;\n    }\n\n    function increaseBankFunds() public payable onlyOwner {\n        require(msg.value > 0);\n        registeredFunds[msg.sender] += msg.value;\n    }\n\n    function retrieveMoney() public {\n        msg.sender.transfer(registeredFunds[msg.sender]);\n    }\n\n    function showBankAddress() public view returns (address) {\n        return bankAddress;\n    }\n\n    function showBalance(address _address) public view returns (uint256) {\n        return registeredFunds[_address];\n    }\n\n    function placeBet(bool _bet, bytes32 _hash) public payable {\n        require(userAddress == 0 && registeredFunds[bankAddress] >= msg.value);\n\n        userAddress = msg.sender;\n        storedUserHash = _hash;\n        storedUserBet = _bet;\n        lockedFunds[msg.sender] = msg.value;\n        registeredFunds[bankAddress] -= msg.value;\n        lockedFunds[bankAddress] = msg.value;\n    }\n\n    function setBankHash(bytes32 _hash) public onlyOwner {\n        require(storedUserHash != 0);\n        storedBankHash = _hash;\n        blockWhenValuesSubmitted = block.number;\n    }\n\n    function sendBankValue(uint8 _value) public onlyOwner {\n        require(keccak256(_value) == storedBankHash);\n        storedBankValue = _value;\n    }\n\n    function sendUserValue(uint8 _value) public {\n        require(keccak256(_value) == storedUserHash);\n        storedUserValue = _value;\n    }\n\n    function checkUserValueTimeout() public onlyOwner {\n        require(block.number > (blockWhenValuesSubmitted + 1000) && storedUserValue != 0);\n        registeredFunds[bankAddress] += lockedFunds[userAddress];\n        lockedFunds[userAddress] = 0;\n    }\n\n    function evaluateBet() public returns (uint8) {\n        require(storedUserValue != 0 && storedBankValue != 0);\n        uint8 random = storedBankValue ^ storedUserValue;\n        uint8 number = getRouletteNumber(random);\n        uint256 winningAmount = lockedFunds[userAddress] * 2;\n        address winner;\n\n        bool isRed = false;\n        uint8 index = 9; // middle of redNumbers array\n\n        for (uint8 counter = 0; counter < 5; counter++) {\n            if (number == redNumbers[index]) { isRed=true; break; }\n            else if (number < redNumbers[index]) { index /= 1/(2**counter); }\n            index *= 1/(2**counter);\n        }\n\n        if ((isRed && storedUserBet) || (!isRed && !storedUserBet && number != 0)) {\n            winner = userAddress;\n        } else {\n            winner = bankAddress;\n        }\n\n        lockedFunds[bankAddress] = 0;\n        lockedFunds[userAddress] = 0;\n        registeredFunds[winner] += winningAmount;\n        return number;\n    }\n\n    function debugShowHashForValue(uint8 _value) public pure returns (bytes32) {\n        return keccak256(_value);\n    }\n\n    function getRouletteNumber(uint8 _random) public pure returns (uint8) {\n        // uint256 max = 2**256 - 1;\n        uint8 numberDistance = 7; // uint256: max / 37;\n        return _random / numberDistance;\n    }\n}\n",
  "sourcePath": "/Users/markus/solidity/roulette/contracts/roulette.sol",
  "compiler": {
    "name": "solc",
    "version": "0.4.19+commit.c4cbbb05.Emscripten.clang"
  },
  "schemaVersion": "1.0.1",
  "updatedAt": "2018-03-06T10:17:05.189Z"
}