{
  "contractName": "roulette",
  "abi": [
    {
      "constant": false,
      "inputs": [
        {
          "name": "_value",
          "type": "uint8"
        }
      ],
      "name": "sendUserValue",
      "outputs": [],
      "payable": false,
      "stateMutability": "nonpayable",
      "type": "function"
    },
    {
      "constant": false,
      "inputs": [
        {
          "name": "_hash",
          "type": "bytes32"
        },
        {
          "name": "_address",
          "type": "address"
        }
      ],
      "name": "setBankHash",
      "outputs": [],
      "payable": false,
      "stateMutability": "nonpayable",
      "type": "function"
    },
    {
      "constant": true,
      "inputs": [
        {
          "name": "_value",
          "type": "uint8"
        }
      ],
      "name": "debugShowHashForValue",
      "outputs": [
        {
          "name": "",
          "type": "bytes32"
        }
      ],
      "payable": false,
      "stateMutability": "pure",
      "type": "function"
    },
    {
      "constant": true,
      "inputs": [
        {
          "name": "",
          "type": "address"
        }
      ],
      "name": "gameRounds",
      "outputs": [
        {
          "name": "storedBankHash",
          "type": "bytes32"
        },
        {
          "name": "storedBankValue",
          "type": "uint8"
        },
        {
          "name": "storedUserValue",
          "type": "uint8"
        },
        {
          "name": "storedUserBet",
          "type": "bool"
        },
        {
          "name": "blockWhenValueSubmitted",
          "type": "uint256"
        },
        {
          "name": "lockedFunds",
          "type": "uint256"
        }
      ],
      "payable": false,
      "stateMutability": "view",
      "type": "function"
    },
    {
      "constant": true,
      "inputs": [],
      "name": "bankAddress",
      "outputs": [
        {
          "name": "",
          "type": "address"
        }
      ],
      "payable": false,
      "stateMutability": "view",
      "type": "function"
    },
    {
      "constant": true,
      "inputs": [
        {
          "name": "",
          "type": "address"
        }
      ],
      "name": "lastRouletteNumbers",
      "outputs": [
        {
          "name": "",
          "type": "uint8"
        }
      ],
      "payable": false,
      "stateMutability": "view",
      "type": "function"
    },
    {
      "constant": false,
      "inputs": [
        {
          "name": "_bet",
          "type": "bool"
        },
        {
          "name": "_value",
          "type": "uint8"
        },
        {
          "name": "_betAmount",
          "type": "uint256"
        }
      ],
      "name": "placeBet",
      "outputs": [],
      "payable": false,
      "stateMutability": "nonpayable",
      "type": "function"
    },
    {
      "constant": false,
      "inputs": [
        {
          "name": "_value",
          "type": "uint8"
        },
        {
          "name": "_address",
          "type": "address"
        }
      ],
      "name": "sendBankValue",
      "outputs": [],
      "payable": false,
      "stateMutability": "nonpayable",
      "type": "function"
    },
    {
      "constant": true,
      "inputs": [
        {
          "name": "",
          "type": "address"
        }
      ],
      "name": "registeredFunds",
      "outputs": [
        {
          "name": "",
          "type": "uint256"
        }
      ],
      "payable": false,
      "stateMutability": "view",
      "type": "function"
    },
    {
      "constant": true,
      "inputs": [
        {
          "name": "_random",
          "type": "uint8"
        }
      ],
      "name": "getRouletteNumber",
      "outputs": [
        {
          "name": "",
          "type": "uint8"
        }
      ],
      "payable": false,
      "stateMutability": "pure",
      "type": "function"
    },
    {
      "constant": false,
      "inputs": [],
      "name": "increaseFunds",
      "outputs": [],
      "payable": true,
      "stateMutability": "payable",
      "type": "function"
    },
    {
      "constant": false,
      "inputs": [],
      "name": "retrieveMoney",
      "outputs": [],
      "payable": false,
      "stateMutability": "nonpayable",
      "type": "function"
    },
    {
      "constant": false,
      "inputs": [
        {
          "name": "_address",
          "type": "address"
        }
      ],
      "name": "checkUserValueTimeout",
      "outputs": [],
      "payable": false,
      "stateMutability": "nonpayable",
      "type": "function"
    },
    {
      "anonymous": false,
      "inputs": [
        {
          "indexed": false,
          "name": "userAddress",
          "type": "address"
        }
      ],
      "name": "BankHashSet",
      "type": "event"
    },
    {
      "anonymous": false,
      "inputs": [
        {
          "indexed": false,
          "name": "_address",
          "type": "address"
        }
      ],
      "name": "FundsChanged",
      "type": "event"
    },
    {
      "anonymous": false,
      "inputs": [
        {
          "indexed": false,
          "name": "userAddress",
          "type": "address"
        }
      ],
      "name": "EvaluationFinished",
      "type": "event"
    }
  ],
  "bytecode": "0x60606040526104a0604051908101604052806000151515158152602001600115151515815260200160001515151581526020016001151515158152602001600015151515815260200160011515151581526020016000151515158152602001600115151515815260200160001515151581526020016001151515158152602001600015151515815260200160001515151581526020016001151515158152602001600015151515815260200160011515151581526020016000151515158152602001600115151515815260200160001515151581526020016001151515158152602001600115151515815260200160001515151581526020016001151515158152602001600015151515815260200160011515151581526020016000151515158152602001600115151515815260200160001515151581526020016001151515158152602001600015151515815260200160001515151581526020016001151515158152602001600015151515815260200160011515151581526020016000151515158152602001600115151515815260200160001515151581526020016001151515158152506004906025620001b8929190620001ff565b50336000806101000a81548173ffffffffffffffffffffffffffffffffffffffff021916908373ffffffffffffffffffffffffffffffffffffffff160217905550620002d2565b826025601f016020900481019282156200028c5791602002820160005b838211156200025b57835183826101000a81548160ff02191690831515021790555092602001926001016020816000010492830192600103026200021c565b80156200028a5782816101000a81549060ff02191690556001016020816000010492830192600103026200025b565b505b5090506200029b91906200029f565b5090565b620002cf91905b80821115620002cb57600081816101000a81549060ff021916905550600101620002a6565b5090565b90565b61164380620002e26000396000f3006060604052600436106100c5576000357c0100000000000000000000000000000000000000000000000000000000900463ffffffff168063084ff5de146100ca578063259797d3146100f0578063435c10c41461013657806364ea9576146101785780637822ed4914610200578063892d899e146102555780639cb0553d146102a8578063a0c370bf146102e2578063b3a5cec614610327578063bca7320114610374578063ddb57092146103b4578063ed56d526146103be578063ef6f4e24146103d3575b600080fd5b34156100d557600080fd5b6100ee600480803560ff1690602001909190505061040c565b005b34156100fb57600080fd5b61013460048080356000191690602001909190803573ffffffffffffffffffffffffffffffffffffffff169060200190919050506104c3565b005b341561014157600080fd5b61015a600480803560ff16906020019091905050610628565b60405180826000191660001916815260200191505060405180910390f35b341561018357600080fd5b6101af600480803573ffffffffffffffffffffffffffffffffffffffff1690602001909190505061066f565b6040518087600019166000191681526020018660ff1660ff1681526020018560ff1660ff16815260200184151515158152602001838152602001828152602001965050505050505060405180910390f35b341561020b57600080fd5b6102136106d2565b604051808273ffffffffffffffffffffffffffffffffffffffff1673ffffffffffffffffffffffffffffffffffffffff16815260200191505060405180910390f35b341561026057600080fd5b61028c600480803573ffffffffffffffffffffffffffffffffffffffff169060200190919050506106f7565b604051808260ff1660ff16815260200191505060405180910390f35b34156102b357600080fd5b6102e06004808035151590602001909190803560ff16906020019091908035906020019091905050610717565b005b34156102ed57600080fd5b610325600480803560ff1690602001909190803573ffffffffffffffffffffffffffffffffffffffff16906020019091905050610a8d565b005b341561033257600080fd5b61035e600480803573ffffffffffffffffffffffffffffffffffffffff16906020019091905050610cef565b6040518082815260200191505060405180910390f35b341561037f57600080fd5b610398600480803560ff16906020019091905050610d07565b604051808260ff1660ff16815260200191505060405180910390f35b6103bc610d28565b005b34156103c957600080fd5b6103d1610de9565b005b34156103de57600080fd5b61040a600480803573ffffffffffffffffffffffffffffffffffffffff16906020019091905050610f65565b005b6000600102600160003373ffffffffffffffffffffffffffffffffffffffff1673ffffffffffffffffffffffffffffffffffffffff16815260200190815260200160002060000154600019161415151561046557600080fd5b80600160003373ffffffffffffffffffffffffffffffffffffffff1673ffffffffffffffffffffffffffffffffffffffff16815260200190815260200160002060010160016101000a81548160ff021916908360ff16021790555050565b6000809054906101000a900473ffffffffffffffffffffffffffffffffffffffff1673ffffffffffffffffffffffffffffffffffffffff163373ffffffffffffffffffffffffffffffffffffffff1614151561051e57600080fd5b6000600102600160008373ffffffffffffffffffffffffffffffffffffffff1673ffffffffffffffffffffffffffffffffffffffff168152602001908152602001600020600001546000191614151561057657600080fd5b81600160008373ffffffffffffffffffffffffffffffffffffffff1673ffffffffffffffffffffffffffffffffffffffff16815260200190815260200160002060000181600019169055507f75a40caadbe6fe30765ebcd88c809bf773a810a5f7b772988a4c935ae7f997af81604051808273ffffffffffffffffffffffffffffffffffffffff1673ffffffffffffffffffffffffffffffffffffffff16815260200191505060405180910390a15050565b600081604051808260ff1660ff167f010000000000000000000000000000000000000000000000000000000000000002815260010191505060405180910390209050919050565b60016020528060005260406000206000915090508060000154908060010160009054906101000a900460ff16908060010160019054906101000a900460ff16908060010160029054906101000a900460ff16908060020154908060030154905086565b6000809054906101000a900473ffffffffffffffffffffffffffffffffffffffff1681565b60026020528060005260406000206000915054906101000a900460ff1681565b60008260ff161415151561072a57600080fd5b80600360008060009054906101000a900473ffffffffffffffffffffffffffffffffffffffff1673ffffffffffffffffffffffffffffffffffffffff1673ffffffffffffffffffffffffffffffffffffffff168152602001908152602001600020541015151561079957600080fd5b80600360003373ffffffffffffffffffffffffffffffffffffffff1673ffffffffffffffffffffffffffffffffffffffff16815260200190815260200160002054101515156107e757600080fd5b81600160003373ffffffffffffffffffffffffffffffffffffffff1673ffffffffffffffffffffffffffffffffffffffff16815260200190815260200160002060010160016101000a81548160ff021916908360ff16021790555082600160003373ffffffffffffffffffffffffffffffffffffffff1673ffffffffffffffffffffffffffffffffffffffff16815260200190815260200160002060010160026101000a81548160ff02191690831515021790555060028102600160003373ffffffffffffffffffffffffffffffffffffffff1673ffffffffffffffffffffffffffffffffffffffff1681526020019081526020016000206003018190555080600360003373ffffffffffffffffffffffffffffffffffffffff1673ffffffffffffffffffffffffffffffffffffffff1681526020019081526020016000206000828254039250508190555080600360008060009054906101000a900473ffffffffffffffffffffffffffffffffffffffff1673ffffffffffffffffffffffffffffffffffffffff1673ffffffffffffffffffffffffffffffffffffffff168152602001908152602001600020600082825403925050819055507f51fd0edd23fd7142fe725a87967576a1ffb5f2429f8efb02526b487fd52804e533604051808273ffffffffffffffffffffffffffffffffffffffff1673ffffffffffffffffffffffffffffffffffffffff16815260200191505060405180910390a17f51fd0edd23fd7142fe725a87967576a1ffb5f2429f8efb02526b487fd52804e56000809054906101000a900473ffffffffffffffffffffffffffffffffffffffff16604051808273ffffffffffffffffffffffffffffffffffffffff1673ffffffffffffffffffffffffffffffffffffffff16815260200191505060405180910390a1505050565b6000809054906101000a900473ffffffffffffffffffffffffffffffffffffffff1673ffffffffffffffffffffffffffffffffffffffff163373ffffffffffffffffffffffffffffffffffffffff16141515610ae857600080fd5b600160008273ffffffffffffffffffffffffffffffffffffffff1673ffffffffffffffffffffffffffffffffffffffff168152602001908152602001600020600001546000191682604051808260ff1660ff167f0100000000000000000000000000000000000000000000000000000000000000028152600101915050604051809103902060001916141515610b7d57600080fd5b6000600160008373ffffffffffffffffffffffffffffffffffffffff1673ffffffffffffffffffffffffffffffffffffffff16815260200190815260200160002060010160019054906101000a900460ff1660ff1614151515610bdf57600080fd5b6000600160008373ffffffffffffffffffffffffffffffffffffffff1673ffffffffffffffffffffffffffffffffffffffff16815260200190815260200160002060010160009054906101000a900460ff1660ff16141515610c4057600080fd5b81600160008373ffffffffffffffffffffffffffffffffffffffff1673ffffffffffffffffffffffffffffffffffffffff16815260200190815260200160002060010160006101000a81548160ff021916908360ff16021790555043600160008373ffffffffffffffffffffffffffffffffffffffff1673ffffffffffffffffffffffffffffffffffffffff16815260200190815260200160002060020181905550610ceb816111b5565b5050565b60036020528060005260406000206000915090505481565b600080600790508060ff168360ff16811515610d1f57fe5b04915050919050565b600034111515610d3757600080fd5b34600360003373ffffffffffffffffffffffffffffffffffffffff1673ffffffffffffffffffffffffffffffffffffffff168152602001908152602001600020600082825401925050819055507f51fd0edd23fd7142fe725a87967576a1ffb5f2429f8efb02526b487fd52804e533604051808273ffffffffffffffffffffffffffffffffffffffff1673ffffffffffffffffffffffffffffffffffffffff16815260200191505060405180910390a1565b600080600360003373ffffffffffffffffffffffffffffffffffffffff1673ffffffffffffffffffffffffffffffffffffffff16815260200190815260200160002054111515610e3857600080fd5b600360003373ffffffffffffffffffffffffffffffffffffffff1673ffffffffffffffffffffffffffffffffffffffff1681526020019081526020016000205490506000600360003373ffffffffffffffffffffffffffffffffffffffff1673ffffffffffffffffffffffffffffffffffffffff168152602001908152602001600020819055507f51fd0edd23fd7142fe725a87967576a1ffb5f2429f8efb02526b487fd52804e533604051808273ffffffffffffffffffffffffffffffffffffffff1673ffffffffffffffffffffffffffffffffffffffff16815260200191505060405180910390a13373ffffffffffffffffffffffffffffffffffffffff166108fc829081150290604051600060405180830381858888f193505050501515610f6257600080fd5b50565b6000809054906101000a900473ffffffffffffffffffffffffffffffffffffffff1673ffffffffffffffffffffffffffffffffffffffff163373ffffffffffffffffffffffffffffffffffffffff16141515610fc057600080fd5b6103e8600160008373ffffffffffffffffffffffffffffffffffffffff1673ffffffffffffffffffffffffffffffffffffffff16815260200190815260200160002060020154014311151561101457600080fd5b6000600160008373ffffffffffffffffffffffffffffffffffffffff1673ffffffffffffffffffffffffffffffffffffffff16815260200190815260200160002060010160019054906101000a900460ff1660ff1614151561107557600080fd5b600160008273ffffffffffffffffffffffffffffffffffffffff1673ffffffffffffffffffffffffffffffffffffffff16815260200190815260200160002060030154600360008060009054906101000a900473ffffffffffffffffffffffffffffffffffffffff1673ffffffffffffffffffffffffffffffffffffffff1673ffffffffffffffffffffffffffffffffffffffff168152602001908152602001600020600082825401925050819055507f51fd0edd23fd7142fe725a87967576a1ffb5f2429f8efb02526b487fd52804e56000809054906101000a900473ffffffffffffffffffffffffffffffffffffffff16604051808273ffffffffffffffffffffffffffffffffffffffff1673ffffffffffffffffffffffffffffffffffffffff16815260200191505060405180910390a16111b281611509565b50565b600080600080600080600160008873ffffffffffffffffffffffffffffffffffffffff1673ffffffffffffffffffffffffffffffffffffffff16815260200190815260200160002060010160019054906101000a900460ff16600160008973ffffffffffffffffffffffffffffffffffffffff1673ffffffffffffffffffffffffffffffffffffffff16815260200190815260200160002060010160009054906101000a900460ff1618955061126a86610d07565b9450600160008873ffffffffffffffffffffffffffffffffffffffff1673ffffffffffffffffffffffffffffffffffffffff16815260200190815260200160002060030154935060048560ff166025811015156112c357fe5b602091828204019190069054906101000a900460ff169150600160008873ffffffffffffffffffffffffffffffffffffffff1673ffffffffffffffffffffffffffffffffffffffff16815260200190815260200160002060010160029054906101000a900460ff1690508180156113375750805b8061135a575081158015611349575080155b8015611359575060008560ff1614155b5b156113675786925061138c565b6000809054906101000a900473ffffffffffffffffffffffffffffffffffffffff1692505b83600360008573ffffffffffffffffffffffffffffffffffffffff1673ffffffffffffffffffffffffffffffffffffffff1681526020019081526020016000206000828254019250508190555084600260008973ffffffffffffffffffffffffffffffffffffffff1673ffffffffffffffffffffffffffffffffffffffff16815260200190815260200160002060006101000a81548160ff021916908360ff16021790555061143a87611509565b7f51fd0edd23fd7142fe725a87967576a1ffb5f2429f8efb02526b487fd52804e583604051808273ffffffffffffffffffffffffffffffffffffffff1673ffffffffffffffffffffffffffffffffffffffff16815260200191505060405180910390a17f201651a77f359fde170cac247580d87a7992d78e8562c828816afaa929af01ba87604051808273ffffffffffffffffffffffffffffffffffffffff1673ffffffffffffffffffffffffffffffffffffffff16815260200191505060405180910390a150505050505050565b60c0604051908101604052806000600102600019168152602001600060ff168152602001600060ff168152602001600015158152602001600081526020016000815250600160008373ffffffffffffffffffffffffffffffffffffffff1673ffffffffffffffffffffffffffffffffffffffff1681526020019081526020016000206000820151816000019060001916905560208201518160010160006101000a81548160ff021916908360ff16021790555060408201518160010160016101000a81548160ff021916908360ff16021790555060608201518160010160026101000a81548160ff0219169083151502179055506080820151816002015560a08201518160030155905050505600a165627a7a72305820defd6442cedde3a621f949c04b7b6ecb6ff2b6e4dab6da022968ecc8ff1d31790029",
  "source": "pragma solidity ^0.4.19;\n\ncontract owned {\n    function owned() public { bankAddress = msg.sender; }\n    address public bankAddress;\n\n    modifier onlyOwner {\n        require(msg.sender == bankAddress);\n        _;\n    }\n}\n\ncontract roulette is owned {\n\n    struct GameRound {\n        // bank\n        bytes32 storedBankHash;\n        uint8 storedBankValue;\n\n        // user\n        uint8 storedUserValue;\n\n        // game\n        bool storedUserBet;\n        uint256 blockWhenValueSubmitted;\n        uint256 lockedFunds;\n    }\n\n    event BankHashSet(address userAddress);\n    event FundsChanged(address _address);\n    event EvaluationFinished(address userAddress);\n\n    mapping (address => GameRound) public gameRounds;\n    mapping (address => uint8) public lastRouletteNumbers;\n    mapping (address => uint256) public registeredFunds;\n\n    bool[37] numberIsRed = [false, true, false, true, false, true, false, true, false, true, false, false, true, false, true, false, true, false, true, true, false, true, false, true, false, true, false, true, false, false, true, false, true, false, true, false, true];\n\n    function resetContractFor(address _address) private {\n        gameRounds[_address] = GameRound(0x0, 0, 0, false, 0, 0);\n    }\n\n    function increaseFunds() external payable {\n        require(msg.value > 0);\n        registeredFunds[msg.sender] += msg.value;\n        FundsChanged(msg.sender);\n    }\n\n    function retrieveMoney() external {\n        require (registeredFunds[msg.sender] > 0);\n\n        uint256 funds = registeredFunds[msg.sender];\n        registeredFunds[msg.sender] = 0;\n        FundsChanged(msg.sender);\n\n        msg.sender.transfer(funds);\n    }\n\n    function placeBet(bool _bet, uint8 _value, uint256 _betAmount) external {\n        require(_value != 0);\n        require(registeredFunds[bankAddress] >= _betAmount);\n        require(registeredFunds[msg.sender] >= _betAmount);\n\n        gameRounds[msg.sender].storedUserValue = _value;\n        gameRounds[msg.sender].storedUserBet = _bet;\n        gameRounds[msg.sender].lockedFunds = _betAmount * 2;\n        registeredFunds[msg.sender] -= _betAmount;\n        registeredFunds[bankAddress] -= _betAmount;\n\n        FundsChanged(msg.sender);\n        FundsChanged(bankAddress);\n    }\n\n    function setBankHash(bytes32 _hash, address _address) external onlyOwner {\n        require(gameRounds[_address].storedBankHash == 0);\n\n        gameRounds[_address].storedBankHash = _hash;\n        BankHashSet(_address);\n    }\n\n    function sendBankValue(uint8 _value, address _address) external onlyOwner {\n        require(keccak256(_value) == gameRounds[_address].storedBankHash);\n        require(gameRounds[_address].storedUserValue != 0);\n        require(gameRounds[_address].storedBankValue == 0);\n\n        gameRounds[_address].storedBankValue = _value;\n        gameRounds[_address].blockWhenValueSubmitted = block.number;\n\n        evaluateBet(_address);\n    }\n\n    function sendUserValue(uint8 _value) external {\n        require(gameRounds[msg.sender].storedBankHash != 0);\n\n        gameRounds[msg.sender].storedUserValue = _value;\n    }\n\n    function checkUserValueTimeout(address _address) external onlyOwner {\n        require(block.number > (gameRounds[_address].blockWhenValueSubmitted + 1000));\n        require(gameRounds[_address].storedUserValue == 0);\n\n        registeredFunds[bankAddress] += gameRounds[_address].lockedFunds;\n        FundsChanged(bankAddress);\n        resetContractFor(_address);\n    }\n\n    function evaluateBet(address _address) private {\n        uint8 random = gameRounds[_address].storedBankValue ^ gameRounds[_address].storedUserValue;\n        uint8 number = getRouletteNumber(random);\n        uint256 winningAmount = gameRounds[_address].lockedFunds;\n        address winner;\n\n        bool isRed = numberIsRed[number];\n        bool userBet = gameRounds[_address].storedUserBet;\n\n        if ((isRed && userBet) || (!isRed && !userBet && number != 0)) {\n            winner = _address;\n        } else {\n            winner = bankAddress;\n        }\n\n        registeredFunds[winner] += winningAmount;\n        lastRouletteNumbers[_address] = number;\n        resetContractFor(_address);\n\n        FundsChanged(winner);\n        EvaluationFinished(_address);\n    }\n\n    function debugShowHashForValue(uint8 _value) external pure returns (bytes32) {\n        return keccak256(_value);\n    }\n\n    function getRouletteNumber(uint8 _random) public pure returns (uint8) {\n        // TODO public -> private\n        // uint256 max = 2**256 - 1;\n        uint8 numberDistance = 7; // uint256: max / 37;\n        return _random / numberDistance; // or just modulo 37\n    }\n}\n",
  "sourcePath": "/Users/markus/solidity/RouletteContract/contracts/roulette.sol",
  "compiler": {
    "name": "solc",
    "version": "0.4.19+commit.c4cbbb05.Emscripten.clang"
  },
  "schemaVersion": "1.0.1",
  "updatedAt": "2018-03-14T22:41:37.604Z"
}