{
  "contractName": "roulette",
  "abi": [
    {
      "constant": false,
      "inputs": [],
      "name": "increaseBankFunds",
      "outputs": [],
      "payable": true,
      "stateMutability": "payable",
      "type": "function"
    },
    {
      "constant": false,
      "inputs": [
        {
          "name": "_value",
          "type": "uint8"
        }
      ],
      "name": "sendUserValue",
      "outputs": [],
      "payable": false,
      "stateMutability": "nonpayable",
      "type": "function"
    },
    {
      "constant": false,
      "inputs": [],
      "name": "evaluateBet",
      "outputs": [],
      "payable": false,
      "stateMutability": "nonpayable",
      "type": "function"
    },
    {
      "constant": false,
      "inputs": [
        {
          "name": "_hash",
          "type": "bytes32"
        },
        {
          "name": "_address",
          "type": "address"
        }
      ],
      "name": "setBankHash",
      "outputs": [],
      "payable": false,
      "stateMutability": "nonpayable",
      "type": "function"
    },
    {
      "constant": true,
      "inputs": [
        {
          "name": "_value",
          "type": "uint8"
        }
      ],
      "name": "debugShowHashForValue",
      "outputs": [
        {
          "name": "",
          "type": "bytes32"
        }
      ],
      "payable": false,
      "stateMutability": "pure",
      "type": "function"
    },
    {
      "constant": true,
      "inputs": [
        {
          "name": "",
          "type": "address"
        }
      ],
      "name": "gameRounds",
      "outputs": [
        {
          "name": "storedBankHash",
          "type": "bytes32"
        },
        {
          "name": "storedBankValue",
          "type": "uint8"
        },
        {
          "name": "storedUserHash",
          "type": "bytes32"
        },
        {
          "name": "storedUserValue",
          "type": "uint8"
        },
        {
          "name": "storedUserBet",
          "type": "bool"
        },
        {
          "name": "blockWhenValueSubmitted",
          "type": "uint256"
        },
        {
          "name": "lockedFunds",
          "type": "uint256"
        }
      ],
      "payable": false,
      "stateMutability": "view",
      "type": "function"
    },
    {
      "constant": true,
      "inputs": [],
      "name": "showBankAddress",
      "outputs": [
        {
          "name": "",
          "type": "address"
        }
      ],
      "payable": false,
      "stateMutability": "view",
      "type": "function"
    },
    {
      "constant": true,
      "inputs": [],
      "name": "getUserAndBankBalance",
      "outputs": [
        {
          "name": "",
          "type": "uint256"
        },
        {
          "name": "",
          "type": "uint256"
        }
      ],
      "payable": false,
      "stateMutability": "view",
      "type": "function"
    },
    {
      "constant": true,
      "inputs": [
        {
          "name": "",
          "type": "address"
        }
      ],
      "name": "lastRouletteNumbers",
      "outputs": [
        {
          "name": "",
          "type": "uint8"
        }
      ],
      "payable": false,
      "stateMutability": "view",
      "type": "function"
    },
    {
      "constant": false,
      "inputs": [
        {
          "name": "_bet",
          "type": "bool"
        },
        {
          "name": "_hash",
          "type": "bytes32"
        }
      ],
      "name": "placeBet",
      "outputs": [],
      "payable": true,
      "stateMutability": "payable",
      "type": "function"
    },
    {
      "constant": false,
      "inputs": [
        {
          "name": "_value",
          "type": "uint8"
        },
        {
          "name": "_address",
          "type": "address"
        }
      ],
      "name": "sendBankValue",
      "outputs": [],
      "payable": false,
      "stateMutability": "nonpayable",
      "type": "function"
    },
    {
      "constant": true,
      "inputs": [
        {
          "name": "",
          "type": "address"
        }
      ],
      "name": "registeredFunds",
      "outputs": [
        {
          "name": "",
          "type": "uint256"
        }
      ],
      "payable": false,
      "stateMutability": "view",
      "type": "function"
    },
    {
      "constant": true,
      "inputs": [
        {
          "name": "_random",
          "type": "uint8"
        }
      ],
      "name": "getRouletteNumber",
      "outputs": [
        {
          "name": "",
          "type": "uint8"
        }
      ],
      "payable": false,
      "stateMutability": "pure",
      "type": "function"
    },
    {
      "constant": false,
      "inputs": [],
      "name": "retrieveMoney",
      "outputs": [],
      "payable": false,
      "stateMutability": "nonpayable",
      "type": "function"
    },
    {
      "constant": false,
      "inputs": [
        {
          "name": "_address",
          "type": "address"
        }
      ],
      "name": "checkUserValueTimeout",
      "outputs": [],
      "payable": false,
      "stateMutability": "nonpayable",
      "type": "function"
    }
  ],
  "bytecode": "0x60606040526104a0604051908101604052806000151515158152602001600115151515815260200160001515151581526020016001151515158152602001600015151515815260200160011515151581526020016000151515158152602001600115151515815260200160001515151581526020016001151515158152602001600015151515815260200160001515151581526020016001151515158152602001600015151515815260200160011515151581526020016000151515158152602001600115151515815260200160001515151581526020016001151515158152602001600115151515815260200160001515151581526020016001151515158152602001600015151515815260200160011515151581526020016000151515158152602001600115151515815260200160001515151581526020016001151515158152602001600015151515815260200160001515151581526020016001151515158152602001600015151515815260200160011515151581526020016000151515158152602001600115151515815260200160001515151581526020016001151515158152506004906025620001b8929190620001ff565b50336000806101000a81548173ffffffffffffffffffffffffffffffffffffffff021916908373ffffffffffffffffffffffffffffffffffffffff160217905550620002d2565b826025601f016020900481019282156200028c5791602002820160005b838211156200025b57835183826101000a81548160ff02191690831515021790555092602001926001016020816000010492830192600103026200021c565b80156200028a5782816101000a81549060ff02191690556001016020816000010492830192600103026200025b565b505b5090506200029b91906200029f565b5090565b620002cf91905b80821115620002cb57600081816101000a81549060ff021916905550600101620002a6565b5090565b90565b61144b80620002e26000396000f3006060604052600436106100da576000357c0100000000000000000000000000000000000000000000000000000000900463ffffffff1680625834e2146100df578063084ff5de146100e95780630a7a08071461010f578063259797d314610124578063435c10c41461016a57806364ea9576146101ac5780636f4e15db14610243578063760f198714610298578063892d899e146102c8578063981f08b51461031b578063a0c370bf14610342578063b3a5cec614610387578063bca73201146103d4578063ed56d52614610414578063ef6f4e2414610429575b600080fd5b6100e7610462565b005b34156100f457600080fd5b61010d600480803560ff1690602001909190505061053c565b005b341561011a57600080fd5b61012261062f565b005b341561012f57600080fd5b61016860048080356000191690602001909190803573ffffffffffffffffffffffffffffffffffffffff169060200190919050506108ae565b005b341561017557600080fd5b61018e600480803560ff169060200190919050506109b1565b60405180826000191660001916815260200191505060405180910390f35b34156101b757600080fd5b6101e3600480803573ffffffffffffffffffffffffffffffffffffffff169060200190919050506109f8565b6040518088600019166000191681526020018760ff1660ff16815260200186600019166000191681526020018560ff1660ff1681526020018415151515815260200183815260200182815260200197505050505050505060405180910390f35b341561024e57600080fd5b610256610a61565b604051808273ffffffffffffffffffffffffffffffffffffffff1673ffffffffffffffffffffffffffffffffffffffff16815260200191505060405180910390f35b34156102a357600080fd5b6102ab610a8a565b604051808381526020018281526020019250505060405180910390f35b34156102d357600080fd5b6102ff600480803573ffffffffffffffffffffffffffffffffffffffff16906020019091905050610b36565b604051808260ff1660ff16815260200191505060405180910390f35b6103406004808035151590602001909190803560001916906020019091905050610b56565b005b341561034d57600080fd5b610385600480803560ff1690602001909190803573ffffffffffffffffffffffffffffffffffffffff16906020019091905050610d95565b005b341561039257600080fd5b6103be600480803573ffffffffffffffffffffffffffffffffffffffff16906020019091905050610f8d565b6040518082815260200191505060405180910390f35b34156103df57600080fd5b6103f8600480803560ff16906020019091905050610fa5565b604051808260ff1660ff16815260200191505060405180910390f35b341561041f57600080fd5b610427610fc6565b005b341561043457600080fd5b610460600480803573ffffffffffffffffffffffffffffffffffffffff169060200190919050506110da565b005b6000809054906101000a900473ffffffffffffffffffffffffffffffffffffffff1673ffffffffffffffffffffffffffffffffffffffff163373ffffffffffffffffffffffffffffffffffffffff161415156104bd57600080fd5b6000341115156104cc57600080fd5b34600360008060009054906101000a900473ffffffffffffffffffffffffffffffffffffffff1673ffffffffffffffffffffffffffffffffffffffff1673ffffffffffffffffffffffffffffffffffffffff16815260200190815260200160002060008282540192505081905550565b600160003373ffffffffffffffffffffffffffffffffffffffff1673ffffffffffffffffffffffffffffffffffffffff168152602001908152602001600020600201546000191681604051808260ff1660ff167f01000000000000000000000000000000000000000000000000000000000000000281526001019150506040518091039020600019161415156105d157600080fd5b80600160003373ffffffffffffffffffffffffffffffffffffffff1673ffffffffffffffffffffffffffffffffffffffff16815260200190815260200160002060030160006101000a81548160ff021916908360ff16021790555050565b6106376113d3565b600080600080600080600160003373ffffffffffffffffffffffffffffffffffffffff1673ffffffffffffffffffffffffffffffffffffffff16815260200190815260200160002060e060405190810160405290816000820154600019166000191681526020016001820160009054906101000a900460ff1660ff1660ff1681526020016002820154600019166000191681526020016003820160009054906101000a900460ff1660ff1660ff1681526020016003820160019054906101000a900460ff161515151581526020016004820154815260200160058201548152505096506000876060015160ff161415151561073157600080fd5b6000876020015160ff161415151561074857600080fd5b8660600151876020015118955061075e86610fa5565b94508660c00151935060048560ff1660258110151561077957fe5b602091828204019190069054906101000a900460ff169150866080015190508180156107a25750805b806107c55750811580156107b4575080155b80156107c4575060008560ff1614155b5b156107d2573392506107f7565b6000809054906101000a900473ffffffffffffffffffffffffffffffffffffffff1692505b83600360008573ffffffffffffffffffffffffffffffffffffffff1673ffffffffffffffffffffffffffffffffffffffff1681526020019081526020016000206000828254019250508190555084600260003373ffffffffffffffffffffffffffffffffffffffff1673ffffffffffffffffffffffffffffffffffffffff16815260200190815260200160002060006101000a81548160ff021916908360ff1602179055506108a5336112a7565b50505050505050565b6000809054906101000a900473ffffffffffffffffffffffffffffffffffffffff1673ffffffffffffffffffffffffffffffffffffffff163373ffffffffffffffffffffffffffffffffffffffff1614151561090957600080fd5b6000600102600160008373ffffffffffffffffffffffffffffffffffffffff1673ffffffffffffffffffffffffffffffffffffffff16815260200190815260200160002060020154600019161415151561096257600080fd5b81600160008373ffffffffffffffffffffffffffffffffffffffff1673ffffffffffffffffffffffffffffffffffffffff16815260200190815260200160002060000181600019169055505050565b600081604051808260ff1660ff167f010000000000000000000000000000000000000000000000000000000000000002815260010191505060405180910390209050919050565b60016020528060005260406000206000915090508060000154908060010160009054906101000a900460ff16908060020154908060030160009054906101000a900460ff16908060030160019054906101000a900460ff16908060040154908060050154905087565b60008060009054906101000a900473ffffffffffffffffffffffffffffffffffffffff16905090565b600080600360003373ffffffffffffffffffffffffffffffffffffffff1673ffffffffffffffffffffffffffffffffffffffff16815260200190815260200160002054600360008060009054906101000a900473ffffffffffffffffffffffffffffffffffffffff1673ffffffffffffffffffffffffffffffffffffffff1673ffffffffffffffffffffffffffffffffffffffff16815260200190815260200160002054915091509091565b60026020528060005260406000206000915054906101000a900460ff1681565b6000600102600160003373ffffffffffffffffffffffffffffffffffffffff1673ffffffffffffffffffffffffffffffffffffffff1681526020019081526020016000206002015460001916141515610bae57600080fd5b6000600102816000191614151515610bc557600080fd5b34600360008060009054906101000a900473ffffffffffffffffffffffffffffffffffffffff1673ffffffffffffffffffffffffffffffffffffffff1673ffffffffffffffffffffffffffffffffffffffff1681526020019081526020016000205410151515610c3457600080fd5b80600160003373ffffffffffffffffffffffffffffffffffffffff1673ffffffffffffffffffffffffffffffffffffffff168152602001908152602001600020600201816000191690555081600160003373ffffffffffffffffffffffffffffffffffffffff1673ffffffffffffffffffffffffffffffffffffffff16815260200190815260200160002060030160016101000a81548160ff02191690831515021790555060023402600160003373ffffffffffffffffffffffffffffffffffffffff1673ffffffffffffffffffffffffffffffffffffffff1681526020019081526020016000206005018190555034600360008060009054906101000a900473ffffffffffffffffffffffffffffffffffffffff1673ffffffffffffffffffffffffffffffffffffffff1673ffffffffffffffffffffffffffffffffffffffff168152602001908152602001600020600082825403925050819055505050565b6000809054906101000a900473ffffffffffffffffffffffffffffffffffffffff1673ffffffffffffffffffffffffffffffffffffffff163373ffffffffffffffffffffffffffffffffffffffff16141515610df057600080fd5b600160008273ffffffffffffffffffffffffffffffffffffffff1673ffffffffffffffffffffffffffffffffffffffff168152602001908152602001600020600001546000191682604051808260ff1660ff167f0100000000000000000000000000000000000000000000000000000000000000028152600101915050604051809103902060001916141515610e8557600080fd5b6000600160008373ffffffffffffffffffffffffffffffffffffffff1673ffffffffffffffffffffffffffffffffffffffff16815260200190815260200160002060030160009054906101000a900460ff1660ff1614151515610ee757600080fd5b81600160008373ffffffffffffffffffffffffffffffffffffffff1673ffffffffffffffffffffffffffffffffffffffff16815260200190815260200160002060010160006101000a81548160ff021916908360ff16021790555043600160008373ffffffffffffffffffffffffffffffffffffffff1673ffffffffffffffffffffffffffffffffffffffff168152602001908152602001600020600401819055505050565b60036020528060005260406000206000915090505481565b600080600790508060ff168360ff16811515610fbd57fe5b04915050919050565b6000600360003373ffffffffffffffffffffffffffffffffffffffff1673ffffffffffffffffffffffffffffffffffffffff1681526020019081526020016000205411151561101457600080fd5b6000600360003373ffffffffffffffffffffffffffffffffffffffff1673ffffffffffffffffffffffffffffffffffffffff168152602001908152602001600020819055503373ffffffffffffffffffffffffffffffffffffffff166108fc600360003373ffffffffffffffffffffffffffffffffffffffff1673ffffffffffffffffffffffffffffffffffffffff168152602001908152602001600020549081150290604051600060405180830381858888f1935050505015156110d857600080fd5b565b6000809054906101000a900473ffffffffffffffffffffffffffffffffffffffff1673ffffffffffffffffffffffffffffffffffffffff163373ffffffffffffffffffffffffffffffffffffffff1614151561113557600080fd5b6103e8600160008373ffffffffffffffffffffffffffffffffffffffff1673ffffffffffffffffffffffffffffffffffffffff16815260200190815260200160002060040154014311151561118957600080fd5b6000600160008373ffffffffffffffffffffffffffffffffffffffff1673ffffffffffffffffffffffffffffffffffffffff16815260200190815260200160002060030160009054906101000a900460ff1660ff16141515156111eb57600080fd5b600160008273ffffffffffffffffffffffffffffffffffffffff1673ffffffffffffffffffffffffffffffffffffffff16815260200190815260200160002060050154600360008060009054906101000a900473ffffffffffffffffffffffffffffffffffffffff1673ffffffffffffffffffffffffffffffffffffffff1673ffffffffffffffffffffffffffffffffffffffff168152602001908152602001600020600082825401925050819055506112a4816112a7565b50565b60e0604051908101604052806000600102600019168152602001600060ff1681526020016000600102600019168152602001600060ff168152602001600015158152602001600081526020016000815250600160008373ffffffffffffffffffffffffffffffffffffffff1673ffffffffffffffffffffffffffffffffffffffff1681526020019081526020016000206000820151816000019060001916905560208201518160010160006101000a81548160ff021916908360ff1602179055506040820151816002019060001916905560608201518160030160006101000a81548160ff021916908360ff16021790555060808201518160030160016101000a81548160ff02191690831515021790555060a0820151816004015560c0820151816005015590505050565b60e06040519081016040528060008019168152602001600060ff16815260200160008019168152602001600060ff168152602001600015158152602001600081526020016000815250905600a165627a7a7230582079dd3ca0988555a3c5b13ce6e74ee21858642f20f2875497ed669fbcca5573710029",
  "source": "pragma solidity ^0.4.19;\n\ncontract owned {\n    function owned() public { bankAddress = msg.sender; }\n    address bankAddress;\n\n    modifier onlyOwner {\n        require(msg.sender == bankAddress);\n        _;\n    }\n}\n\ncontract roulette is owned {\n\n    struct GameRound {\n        // bank\n        bytes32 storedBankHash;\n        uint8 storedBankValue;\n\n        // user\n        bytes32 storedUserHash;\n        uint8 storedUserValue;\n\n        // game\n        bool storedUserBet;\n        uint256 blockWhenValueSubmitted;\n        uint256 lockedFunds;\n    }\n\n    mapping (address => GameRound) public gameRounds;\n    mapping (address => uint8) public lastRouletteNumbers;\n    mapping (address => uint256) public registeredFunds;\n\n    bool[37] numberIsRed = [false, true, false, true, false, true, false, true, false, true, false, false, true, false, true, false, true, false, true, true, false, true, false, true, false, true, false, true, false, false, true, false, true, false, true, false, true];\n\n    function resetContractFor(address _address) private {\n        gameRounds[_address] = GameRound(0x0, 0, 0x0, 0, false, 0, 0);\n    }\n\n    function increaseBankFunds() external payable onlyOwner {\n        require(msg.value > 0);\n        registeredFunds[bankAddress] += msg.value;\n    }\n\n    function retrieveMoney() external {\n        require (registeredFunds[msg.sender] > 0);\n\n        registeredFunds[msg.sender] = 0;\n        msg.sender.transfer(registeredFunds[msg.sender]);\n    }\n\n    function getUserAndBankBalance() external view returns (uint256, uint256) {\n        return (registeredFunds[msg.sender], registeredFunds[bankAddress]);\n    }\n\n    function showBankAddress() external view returns (address) {\n        return bankAddress;\n    }\n\n    function placeBet(bool _bet, bytes32 _hash) external payable {\n        require(gameRounds[msg.sender].storedUserHash == 0);\n        require(_hash != 0);\n        require(registeredFunds[bankAddress] >= msg.value);\n\n        gameRounds[msg.sender].storedUserHash = _hash;\n        gameRounds[msg.sender].storedUserBet = _bet;\n        gameRounds[msg.sender].lockedFunds = msg.value * 2;\n        registeredFunds[bankAddress] -= msg.value;\n    }\n\n    function setBankHash(bytes32 _hash, address _address) external onlyOwner {\n        require(gameRounds[_address].storedUserHash != 0);\n\n        gameRounds[_address].storedBankHash = _hash;\n    }\n\n    function sendBankValue(uint8 _value, address _address) external onlyOwner {\n        require(keccak256(_value) == gameRounds[_address].storedBankHash);\n        require(gameRounds[_address].storedUserValue != 0);\n\n        gameRounds[_address].storedBankValue = _value;\n        gameRounds[_address].blockWhenValueSubmitted = block.number;\n    }\n\n    function sendUserValue(uint8 _value) external {\n        require(keccak256(_value) == gameRounds[msg.sender].storedUserHash);\n\n        gameRounds[msg.sender].storedUserValue = _value;\n    }\n\n    function checkUserValueTimeout(address _address) external onlyOwner {\n        require(block.number > (gameRounds[_address].blockWhenValueSubmitted + 1000));\n        require(gameRounds[_address].storedUserValue != 0);\n\n        registeredFunds[bankAddress] += gameRounds[_address].lockedFunds;\n        resetContractFor(_address);\n    }\n\n    function evaluateBet() external {\n        GameRound memory round = gameRounds[msg.sender];\n\n        require(round.storedUserValue != 0);\n        require(round.storedBankValue != 0);\n\n        uint8 random = round.storedBankValue ^ round.storedUserValue;\n        uint8 number = getRouletteNumber(random);\n        uint256 winningAmount = round.lockedFunds;\n        address winner;\n\n        bool isRed = numberIsRed[number];\n        bool userBet = round.storedUserBet;\n\n        if ((isRed && userBet) || (!isRed && !userBet && number != 0)) {\n            winner = msg.sender;\n        } else {\n            winner = bankAddress;\n        }\n\n        registeredFunds[winner] += winningAmount;\n        lastRouletteNumbers[msg.sender] = number;\n        resetContractFor(msg.sender);\n    }\n\n    function debugShowHashForValue(uint8 _value) external pure returns (bytes32) {\n        return keccak256(_value);\n    }\n\n    function getRouletteNumber(uint8 _random) public pure returns (uint8) {\n        // TODO public -> private\n        // uint256 max = 2**256 - 1;\n        uint8 numberDistance = 7; // uint256: max / 37;\n        return _random / numberDistance;\n    }\n}\n",
  "sourcePath": "/Users/markus/solidity/roulette/contracts/roulette.sol",
  "compiler": {
    "name": "solc",
    "version": "0.4.19+commit.c4cbbb05.Emscripten.clang"
  },
  "schemaVersion": "1.0.1",
  "updatedAt": "2018-03-11T18:09:27.109Z"
}