{
  "contractName": "roulette",
  "abi": [
    {
      "constant": false,
      "inputs": [
        {
          "name": "_bet",
          "type": "bool"
        },
        {
          "name": "_value",
          "type": "uint256"
        },
        {
          "name": "_betAmount",
          "type": "uint256"
        }
      ],
      "name": "placeBet",
      "outputs": [],
      "payable": false,
      "stateMutability": "nonpayable",
      "type": "function"
    },
    {
      "constant": false,
      "inputs": [
        {
          "name": "_hash",
          "type": "bytes32"
        },
        {
          "name": "_address",
          "type": "address"
        }
      ],
      "name": "setBankHash",
      "outputs": [],
      "payable": false,
      "stateMutability": "nonpayable",
      "type": "function"
    },
    {
      "constant": true,
      "inputs": [
        {
          "name": "_value",
          "type": "uint256"
        }
      ],
      "name": "debugShowHashForValue",
      "outputs": [
        {
          "name": "",
          "type": "bytes32"
        }
      ],
      "payable": false,
      "stateMutability": "pure",
      "type": "function"
    },
    {
      "constant": true,
      "inputs": [
        {
          "name": "",
          "type": "address"
        }
      ],
      "name": "gameRounds",
      "outputs": [
        {
          "name": "storedBankHash",
          "type": "bytes32"
        },
        {
          "name": "storedBankValue",
          "type": "uint256"
        },
        {
          "name": "storedUserValue",
          "type": "uint256"
        },
        {
          "name": "storedUserBet",
          "type": "bool"
        },
        {
          "name": "blockWhenValueSubmitted",
          "type": "uint256"
        },
        {
          "name": "lockedFunds",
          "type": "uint256"
        }
      ],
      "payable": false,
      "stateMutability": "view",
      "type": "function"
    },
    {
      "constant": false,
      "inputs": [],
      "name": "checkBankValueTimeout",
      "outputs": [],
      "payable": false,
      "stateMutability": "nonpayable",
      "type": "function"
    },
    {
      "constant": false,
      "inputs": [
        {
          "name": "_value",
          "type": "uint256"
        }
      ],
      "name": "sendUserValue",
      "outputs": [],
      "payable": false,
      "stateMutability": "nonpayable",
      "type": "function"
    },
    {
      "constant": true,
      "inputs": [],
      "name": "bankAddress",
      "outputs": [
        {
          "name": "",
          "type": "address"
        }
      ],
      "payable": false,
      "stateMutability": "view",
      "type": "function"
    },
    {
      "constant": true,
      "inputs": [
        {
          "name": "",
          "type": "address"
        }
      ],
      "name": "lastRouletteNumbers",
      "outputs": [
        {
          "name": "",
          "type": "uint256"
        }
      ],
      "payable": false,
      "stateMutability": "view",
      "type": "function"
    },
    {
      "constant": true,
      "inputs": [
        {
          "name": "",
          "type": "address"
        }
      ],
      "name": "registeredFunds",
      "outputs": [
        {
          "name": "",
          "type": "uint256"
        }
      ],
      "payable": false,
      "stateMutability": "view",
      "type": "function"
    },
    {
      "constant": false,
      "inputs": [],
      "name": "increaseFunds",
      "outputs": [],
      "payable": true,
      "stateMutability": "payable",
      "type": "function"
    },
    {
      "constant": false,
      "inputs": [
        {
          "name": "_value",
          "type": "uint256"
        },
        {
          "name": "_address",
          "type": "address"
        }
      ],
      "name": "sendBankValue",
      "outputs": [],
      "payable": false,
      "stateMutability": "nonpayable",
      "type": "function"
    },
    {
      "constant": false,
      "inputs": [],
      "name": "retrieveMoney",
      "outputs": [],
      "payable": false,
      "stateMutability": "nonpayable",
      "type": "function"
    },
    {
      "anonymous": false,
      "inputs": [
        {
          "indexed": false,
          "name": "userAddress",
          "type": "address"
        }
      ],
      "name": "BankHashSet",
      "type": "event"
    },
    {
      "anonymous": false,
      "inputs": [
        {
          "indexed": false,
          "name": "_address",
          "type": "address"
        }
      ],
      "name": "FundsChanged",
      "type": "event"
    },
    {
      "anonymous": false,
      "inputs": [
        {
          "indexed": false,
          "name": "userAddress",
          "type": "address"
        }
      ],
      "name": "EvaluationFinished",
      "type": "event"
    }
  ],
  "bytecode": "0x60606040526104a0604051908101604052806000151515158152602001600115151515815260200160001515151581526020016001151515158152602001600015151515815260200160011515151581526020016000151515158152602001600115151515815260200160001515151581526020016001151515158152602001600015151515815260200160001515151581526020016001151515158152602001600015151515815260200160011515151581526020016000151515158152602001600115151515815260200160001515151581526020016001151515158152602001600115151515815260200160001515151581526020016001151515158152602001600015151515815260200160011515151581526020016000151515158152602001600115151515815260200160001515151581526020016001151515158152602001600015151515815260200160001515151581526020016001151515158152602001600015151515815260200160011515151581526020016000151515158152602001600115151515815260200160001515151581526020016001151515158152506004906025620001b8929190620001ff565b50336000806101000a81548173ffffffffffffffffffffffffffffffffffffffff021916908373ffffffffffffffffffffffffffffffffffffffff160217905550620002d2565b826025601f016020900481019282156200028c5791602002820160005b838211156200025b57835183826101000a81548160ff02191690831515021790555092602001926001016020816000010492830192600103026200021c565b80156200028a5782816101000a81549060ff02191690556001016020816000010492830192600103026200025b565b505b5090506200029b91906200029f565b5090565b620002cf91905b80821115620002cb57600081816101000a81549060ff021916905550600101620002a6565b5090565b90565b6114cd80620002e26000396000f3006060604052600436106100ba576000357c0100000000000000000000000000000000000000000000000000000000900463ffffffff1680631e00c5a5146100bf578063259797d3146100f65780632f197ddc1461013c57806364ea95761461017b5780636b58245b146101f75780637525afe01461020c5780637822ed491461022f578063892d899e14610284578063b3a5cec6146102d1578063ddb570921461031e578063e748e6d814610328578063ed56d5261461036a575b600080fd5b34156100ca57600080fd5b6100f46004808035151590602001909190803590602001909190803590602001909190505061037f565b005b341561010157600080fd5b61013a60048080356000191690602001909190803573ffffffffffffffffffffffffffffffffffffffff169060200190919050506106de565b005b341561014757600080fd5b61015d6004808035906020019091905050610843565b60405180826000191660001916815260200191505060405180910390f35b341561018657600080fd5b6101b2600480803573ffffffffffffffffffffffffffffffffffffffff16906020019091905050610862565b60405180876000191660001916815260200186815260200185815260200184151515158152602001838152602001828152602001965050505050505060405180910390f35b341561020257600080fd5b61020a6108ab565b005b341561021757600080fd5b61022d6004808035906020019091905050610b53565b005b341561023a57600080fd5b610242610bf6565b604051808273ffffffffffffffffffffffffffffffffffffffff1673ffffffffffffffffffffffffffffffffffffffff16815260200191505060405180910390f35b341561028f57600080fd5b6102bb600480803573ffffffffffffffffffffffffffffffffffffffff16906020019091905050610c1b565b6040518082815260200191505060405180910390f35b34156102dc57600080fd5b610308600480803573ffffffffffffffffffffffffffffffffffffffff16906020019091905050610c33565b6040518082815260200191505060405180910390f35b610326610c4b565b005b341561033357600080fd5b610368600480803590602001909190803573ffffffffffffffffffffffffffffffffffffffff16906020019091905050610d0c565b005b341561037557600080fd5b61037d610f12565b005b6000821415151561038f57600080fd5b80600360008060009054906101000a900473ffffffffffffffffffffffffffffffffffffffff1673ffffffffffffffffffffffffffffffffffffffff1673ffffffffffffffffffffffffffffffffffffffff16815260200190815260200160002054101515156103fe57600080fd5b80600360003373ffffffffffffffffffffffffffffffffffffffff1673ffffffffffffffffffffffffffffffffffffffff168152602001908152602001600020541015151561044c57600080fd5b81600160003373ffffffffffffffffffffffffffffffffffffffff1673ffffffffffffffffffffffffffffffffffffffff1681526020019081526020016000206002018190555082600160003373ffffffffffffffffffffffffffffffffffffffff1673ffffffffffffffffffffffffffffffffffffffff16815260200190815260200160002060030160006101000a81548160ff02191690831515021790555060028102600160003373ffffffffffffffffffffffffffffffffffffffff1673ffffffffffffffffffffffffffffffffffffffff1681526020019081526020016000206005018190555080600360003373ffffffffffffffffffffffffffffffffffffffff1673ffffffffffffffffffffffffffffffffffffffff1681526020019081526020016000206000828254039250508190555080600360008060009054906101000a900473ffffffffffffffffffffffffffffffffffffffff1673ffffffffffffffffffffffffffffffffffffffff1673ffffffffffffffffffffffffffffffffffffffff168152602001908152602001600020600082825403925050819055507f51fd0edd23fd7142fe725a87967576a1ffb5f2429f8efb02526b487fd52804e533604051808273ffffffffffffffffffffffffffffffffffffffff1673ffffffffffffffffffffffffffffffffffffffff16815260200191505060405180910390a17f51fd0edd23fd7142fe725a87967576a1ffb5f2429f8efb02526b487fd52804e56000809054906101000a900473ffffffffffffffffffffffffffffffffffffffff16604051808273ffffffffffffffffffffffffffffffffffffffff1673ffffffffffffffffffffffffffffffffffffffff16815260200191505060405180910390a1505050565b6000809054906101000a900473ffffffffffffffffffffffffffffffffffffffff1673ffffffffffffffffffffffffffffffffffffffff163373ffffffffffffffffffffffffffffffffffffffff1614151561073957600080fd5b6000600102600160008373ffffffffffffffffffffffffffffffffffffffff1673ffffffffffffffffffffffffffffffffffffffff168152602001908152602001600020600001546000191614151561079157600080fd5b81600160008373ffffffffffffffffffffffffffffffffffffffff1673ffffffffffffffffffffffffffffffffffffffff16815260200190815260200160002060000181600019169055507f75a40caadbe6fe30765ebcd88c809bf773a810a5f7b772988a4c935ae7f997af81604051808273ffffffffffffffffffffffffffffffffffffffff1673ffffffffffffffffffffffffffffffffffffffff16815260200191505060405180910390a15050565b6000816040518082815260200191505060405180910390209050919050565b60016020528060005260406000206000915090508060000154908060010154908060020154908060030160009054906101000a900460ff16908060040154908060050154905086565b6000809054906101000a900473ffffffffffffffffffffffffffffffffffffffff1673ffffffffffffffffffffffffffffffffffffffff163373ffffffffffffffffffffffffffffffffffffffff1614151561090657600080fd5b61012c600160003373ffffffffffffffffffffffffffffffffffffffff1673ffffffffffffffffffffffffffffffffffffffff16815260200190815260200160002060040154014311151561095a57600080fd5b6000600102600160003373ffffffffffffffffffffffffffffffffffffffff1673ffffffffffffffffffffffffffffffffffffffff1681526020019081526020016000206000015460001916141515156109b357600080fd5b6000600160003373ffffffffffffffffffffffffffffffffffffffff1673ffffffffffffffffffffffffffffffffffffffff16815260200190815260200160002060010154141515610a0457600080fd5b6000600160003373ffffffffffffffffffffffffffffffffffffffff1673ffffffffffffffffffffffffffffffffffffffff1681526020019081526020016000206002015414151515610a5657600080fd5b600160003373ffffffffffffffffffffffffffffffffffffffff1673ffffffffffffffffffffffffffffffffffffffff16815260200190815260200160002060050154600360003373ffffffffffffffffffffffffffffffffffffffff1673ffffffffffffffffffffffffffffffffffffffff168152602001908152602001600020600082825401925050819055507f51fd0edd23fd7142fe725a87967576a1ffb5f2429f8efb02526b487fd52804e533604051808273ffffffffffffffffffffffffffffffffffffffff1673ffffffffffffffffffffffffffffffffffffffff16815260200191505060405180910390a1610b513361108e565b565b6000600102600160003373ffffffffffffffffffffffffffffffffffffffff1673ffffffffffffffffffffffffffffffffffffffff168152602001908152602001600020600001546000191614151515610bac57600080fd5b80600160003373ffffffffffffffffffffffffffffffffffffffff1673ffffffffffffffffffffffffffffffffffffffff1681526020019081526020016000206002018190555050565b6000809054906101000a900473ffffffffffffffffffffffffffffffffffffffff1681565b60026020528060005260406000206000915090505481565b60036020528060005260406000206000915090505481565b600034111515610c5a57600080fd5b34600360003373ffffffffffffffffffffffffffffffffffffffff1673ffffffffffffffffffffffffffffffffffffffff168152602001908152602001600020600082825401925050819055507f51fd0edd23fd7142fe725a87967576a1ffb5f2429f8efb02526b487fd52804e533604051808273ffffffffffffffffffffffffffffffffffffffff1673ffffffffffffffffffffffffffffffffffffffff16815260200191505060405180910390a1565b6000809054906101000a900473ffffffffffffffffffffffffffffffffffffffff1673ffffffffffffffffffffffffffffffffffffffff163373ffffffffffffffffffffffffffffffffffffffff16141515610d6757600080fd5b600160008273ffffffffffffffffffffffffffffffffffffffff1673ffffffffffffffffffffffffffffffffffffffff16815260200190815260200160002060000154600019168260405180828152602001915050604051809103902060001916141515610dd457600080fd5b6000600160008373ffffffffffffffffffffffffffffffffffffffff1673ffffffffffffffffffffffffffffffffffffffff1681526020019081526020016000206002015414151515610e2657600080fd5b6000600160008373ffffffffffffffffffffffffffffffffffffffff1673ffffffffffffffffffffffffffffffffffffffff16815260200190815260200160002060010154141515610e7757600080fd5b81600160008373ffffffffffffffffffffffffffffffffffffffff1673ffffffffffffffffffffffffffffffffffffffff1681526020019081526020016000206001018190555043600160008373ffffffffffffffffffffffffffffffffffffffff1673ffffffffffffffffffffffffffffffffffffffff16815260200190815260200160002060040181905550610f0e81611168565b5050565b600080600360003373ffffffffffffffffffffffffffffffffffffffff1673ffffffffffffffffffffffffffffffffffffffff16815260200190815260200160002054111515610f6157600080fd5b600360003373ffffffffffffffffffffffffffffffffffffffff1673ffffffffffffffffffffffffffffffffffffffff1681526020019081526020016000205490506000600360003373ffffffffffffffffffffffffffffffffffffffff1673ffffffffffffffffffffffffffffffffffffffff168152602001908152602001600020819055507f51fd0edd23fd7142fe725a87967576a1ffb5f2429f8efb02526b487fd52804e533604051808273ffffffffffffffffffffffffffffffffffffffff1673ffffffffffffffffffffffffffffffffffffffff16815260200191505060405180910390a13373ffffffffffffffffffffffffffffffffffffffff166108fc829081150290604051600060405180830381858888f19350505050151561108b57600080fd5b50565b60c06040519081016040528060006001026000191681526020016000815260200160008152602001600015158152602001600081526020016000815250600160008373ffffffffffffffffffffffffffffffffffffffff1673ffffffffffffffffffffffffffffffffffffffff16815260200190815260200160002060008201518160000190600019169055602082015181600101556040820151816002015560608201518160030160006101000a81548160ff0219169083151502179055506080820151816004015560a0820151816005015590505050565b600080600080600080600160008873ffffffffffffffffffffffffffffffffffffffff1673ffffffffffffffffffffffffffffffffffffffff16815260200190815260200160002060020154600160008973ffffffffffffffffffffffffffffffffffffffff1673ffffffffffffffffffffffffffffffffffffffff168152602001908152602001600020600101541895506112038661148b565b60ff169450600160008873ffffffffffffffffffffffffffffffffffffffff1673ffffffffffffffffffffffffffffffffffffffff16815260200190815260200160002060050154935060048560258110151561125c57fe5b602091828204019190069054906101000a900460ff169150600160008873ffffffffffffffffffffffffffffffffffffffff1673ffffffffffffffffffffffffffffffffffffffff16815260200190815260200160002060030160009054906101000a900460ff1690508180156112d05750805b806112f05750811580156112e2575080155b80156112ef575060008514155b5b156112fd57869250611322565b6000809054906101000a900473ffffffffffffffffffffffffffffffffffffffff1692505b83600360008573ffffffffffffffffffffffffffffffffffffffff1673ffffffffffffffffffffffffffffffffffffffff1681526020019081526020016000206000828254019250508190555084600260008973ffffffffffffffffffffffffffffffffffffffff1673ffffffffffffffffffffffffffffffffffffffff168152602001908152602001600020819055506113bc8761108e565b7f51fd0edd23fd7142fe725a87967576a1ffb5f2429f8efb02526b487fd52804e583604051808273ffffffffffffffffffffffffffffffffffffffff1673ffffffffffffffffffffffffffffffffffffffff16815260200191505060405180910390a17f201651a77f359fde170cac247580d87a7992d78e8562c828816afaa929af01ba87604051808273ffffffffffffffffffffffffffffffffffffffff1673ffffffffffffffffffffffffffffffffffffffff16815260200191505060405180910390a150505050505050565b600060258281151561149957fe5b0690509190505600a165627a7a72305820c490a775541730f4670c09e2e0eed210bf615e2589d0942b03f76fb849f6c7470029",
  "source": "pragma solidity ^0.4.19;\n\ncontract owned {\n    function owned() public { bankAddress = msg.sender; }\n    address public bankAddress;\n\n    modifier onlyOwner {\n        require(msg.sender == bankAddress);\n        _;\n    }\n}\n\ncontract roulette is owned {\n\n    struct GameRound {\n        // bank\n        bytes32 storedBankHash;\n        uint256 storedBankValue;\n\n        // user\n        uint256 storedUserValue;\n\n        // game\n        bool storedUserBet;\n        uint256 blockWhenValueSubmitted;\n        uint256 lockedFunds;\n    }\n\n    event BankHashSet(address userAddress);\n    event FundsChanged(address _address);\n    event EvaluationFinished(address userAddress);\n\n    mapping (address => GameRound) public gameRounds;\n    mapping (address => uint256) public lastRouletteNumbers;\n    mapping (address => uint256) public registeredFunds;\n\n    bool[37] numberIsRed = [false, true, false, true, false, true, false, true, false, true, false, false, true, false, true, false, true, false, true, true, false, true, false, true, false, true, false, true, false, false, true, false, true, false, true, false, true];\n\n    function resetContractFor(address _address) private {\n        gameRounds[_address] = GameRound(0x0, 0, 0, false, 0, 0);\n    }\n\n    function increaseFunds() external payable {\n        require(msg.value > 0);\n        registeredFunds[msg.sender] += msg.value;\n        FundsChanged(msg.sender);\n    }\n\n    function retrieveMoney() external {\n        require (registeredFunds[msg.sender] > 0);\n\n        uint256 funds = registeredFunds[msg.sender];\n        registeredFunds[msg.sender] = 0;\n        FundsChanged(msg.sender);\n\n        msg.sender.transfer(funds);\n    }\n\n    function placeBet(bool _bet, uint256 _value, uint256 _betAmount) external {\n        require(_value != 0);\n        require(registeredFunds[bankAddress] >= _betAmount);\n        require(registeredFunds[msg.sender] >= _betAmount);\n\n        gameRounds[msg.sender].storedUserValue = _value;\n        gameRounds[msg.sender].storedUserBet = _bet;\n        gameRounds[msg.sender].lockedFunds = _betAmount * 2;\n        registeredFunds[msg.sender] -= _betAmount;\n        registeredFunds[bankAddress] -= _betAmount;\n\n        FundsChanged(msg.sender);\n        FundsChanged(bankAddress);\n    }\n\n    function setBankHash(bytes32 _hash, address _address) external onlyOwner {\n        require(gameRounds[_address].storedBankHash == 0);\n\n        gameRounds[_address].storedBankHash = _hash;\n        BankHashSet(_address);\n    }\n\n    function sendBankValue(uint256 _value, address _address) external onlyOwner {\n        require(keccak256(_value) == gameRounds[_address].storedBankHash);\n        require(gameRounds[_address].storedUserValue != 0);\n        require(gameRounds[_address].storedBankValue == 0);\n\n        gameRounds[_address].storedBankValue = _value;\n        gameRounds[_address].blockWhenValueSubmitted = block.number;\n\n        evaluateBet(_address);\n    }\n\n    function sendUserValue(uint256 _value) external {\n        require(gameRounds[msg.sender].storedBankHash != 0);\n\n        gameRounds[msg.sender].storedUserValue = _value;\n    }\n\n    function checkBankValueTimeout() external onlyOwner {\n        require(block.number > (gameRounds[msg.sender].blockWhenValueSubmitted + 300));\n        require(gameRounds[msg.sender].storedBankHash != 0);\n        require(gameRounds[msg.sender].storedBankValue == 0);\n        require(gameRounds[msg.sender].storedUserValue != 0);\n\n        registeredFunds[msg.sender] += gameRounds[msg.sender].lockedFunds;\n        FundsChanged(msg.sender);\n        resetContractFor(msg.sender);\n    }\n\n    function evaluateBet(address _address) private {\n        uint256 random = gameRounds[_address].storedBankValue ^ gameRounds[_address].storedUserValue;\n        uint256 number = getRouletteNumber(random);\n        uint256 winningAmount = gameRounds[_address].lockedFunds;\n        address winner;\n\n        bool isRed = numberIsRed[number];\n        bool userBet = gameRounds[_address].storedUserBet;\n\n        if ((isRed && userBet) || (!isRed && !userBet && number != 0)) {\n            winner = _address;\n        } else {\n            winner = bankAddress;\n        }\n\n        registeredFunds[winner] += winningAmount;\n        lastRouletteNumbers[_address] = number;\n        resetContractFor(_address);\n\n        FundsChanged(winner);\n        EvaluationFinished(_address);\n    }\n\n    function debugShowHashForValue(uint256 _value) external pure returns (bytes32) {\n        return keccak256(_value);\n    }\n\n    function getRouletteNumber(uint256 _random) private pure returns (uint8) {\n        return uint8(_random % 37);\n    }\n}\n",
  "sourcePath": "/Users/markus/solidity/RouletteContract/contracts/roulette.sol",
  "compiler": {
    "name": "solc",
    "version": "0.4.19+commit.c4cbbb05.Emscripten.clang"
  },
  "schemaVersion": "1.0.1",
  "updatedAt": "2018-04-03T14:11:49.169Z"
}